:020000040800F2
:10000000007A0024AD020008A7300008912C0008F7
:10001000A530000825040008893A00080000000007
:10002000000000000000000000000000E9320008AD
:100030002704000800000000A9300008EB32000887
:10004000C7020008C7020008C7020008C70200086C
:10005000C7020008C7020008C7020008C70200085C
:10006000C7020008C7020008C7020008C70200084C
:10007000C7020008C7020008C7020008C70200083C
:10008000C7020008C7020008C7020008C70200082C
:10009000C7020008C7020008C7020008C70200081C
:1000A000C7020008C7020008C7020008C70200080C
:1000B000C7020008C7020008C7020008C7020008FC
:1000C000C7020008C7020008C7020008C7020008EC
:1000D000C7020008C7020008C7020008C7020008DC
:1000E000C7020008C702000800000000C70200089D
:1000F000C7020008C7020008C7020008C7020008BC
:10010000C7020008C7020008C7020008C7020008AB
:10011000C7020008C7020008C7020008C70200089B
:10012000C7020008C7020008C7020008C70200088B
:10013000C7020008C7020008C7020008C70200087B
:1001400000000000000000000000000000000000AF
:10015000C7020008C7020008C7020008C70200085B
:10016000C7020008C7020008C7020008C70200084B
:10017000C7020008C7020008C7020008000000000C
:10018000C7020008C7020008C7020008C70200082B
:10019000C7020008C7020008C7020008C70200081B
:1001A000C7020008C7020008C7020008C70200080B
:1001B000C7020008C7020008C7020008C7020008FB
:1001C000C7020008C7020008C7020008C7020008EB
:1001D000C7020008C7020008C7020008C7020008DB
:1001E000C7020008C7020008C7020008C7020008CB
:1001F000C7020008C7020008C7020008C7020008BB
:10020000C7020008C7020008C7020008C7020008AA
:10021000C7020008C7020008C7020008C70200089A
:10022000C7020008C7020008C7020008000000005B
:10023000C7020008C702000800000000C70200084B
:10024000C7020008C7020008C7020008C70200086A
:10025000C7020008C7020008C7020008C70200085A
:10026000C7020008C7020008C7020008C70200084A
:10027000C7020008C7020008C7020008000000000B
:10028000C702000800000000C702000800000000CC
:1002900000000000C7020008DFF80CD000F0B0F842
:1002A0000048004725640008007A0024064880477B
:1002B00006480047FEE7FEE7FEE7FEE7FEE7FEE74B
:1002C000FEE7FEE7FEE7FEE791330008990200082B
:1002D0002DE9F05F0546002092469B46884606467B
:1002E000814640241BE0284641464746224600F00E
:1002F00076F853465A46C01A914110D31146184613
:10030000224600F05DF82D1A67EB01084F462246A1
:100310000120002100F054F817EB00094E41201E87
:10032000A4F10104DFDC484631462A464346BDE8D5
:10033000F09F40EA01039B0703D009E008C9121FA0
:1003400008C0042AFAD203E011F8013B00F8013B8F
:10035000521EF9D27047D2B201E000F8012B491EBB
:10036000FBD270470022F6E710B513460A46044652
:100370001946FFF7F0FF204610BD30B504460020B7
:10038000034600E05B1C934203D2E05CCD5C401B63
:10039000F8D030BD30B50B460146002020220124A4
:1003A00009E021FA02F59D4205D303FA02F5491B43
:1003B00004FA02F52844151EA2F10102F1DC30BD59
:1003C000202A04DB203A00FA02F100207047914015
:1003D000C2F1200320FA03F3194390407047202A0A
:1003E00004DB203A21FA02F00021704721FA02F3DF
:1003F000D040C2F1200291400843194670470000E6
:10040000064C074D06E0E06840F0010394E8070061
:1004100098471034AC42F6D3FFF742FF94B9000876
:10042000B4B90008FEE7704770B5A2B006460024D4
:100430004FF4C36001258DF80F5002238DF81D4045
:1004400069038DF80E5009948DF81F400D902020FF
:100450008DF804508DF8325042028DF860500691AC
:100460004FF040518DF8384002948DF861408DF87E
:100470001C408DF828408DF862408DF80C400B949C
:100480008DF81E500F948DF8115012948DF8404045
:100490008DF831408DF8124014948DF85640179025
:1004A000304616938DF8205005928DF854408DF803
:1004B00030408DF81050009169468DF80D408DF850
:1004C000554011948DF84C5000F0FCF91B956805CF
:1004D0008DF871404FF406718DF8685019948DF8BD
:1004E00080408DF870401F908DF878401D90304608
:1004F0008DF88140219119A900F08AF922B070BDD0
:100500000020704701F0AAB8024810B500F068FE5C
:10051000002010BD2401002413460A460146044869
:1005200010B500F01FFE002801D04FF0FF3010BDC5
:100530002401002413460A460146044810B500F081
:100540005BFF002801D04FF0FF3010BD24010024D4
:100550002DE9F04F836A00F1180593468C68002757
:100560001E4655F82320D2F80CC0BCF1000F63DB07
:1005700091F800805FEA487837D5D1F824806FF38E
:100580000F0C4CEA080C4CF4803CC2F80CC0D0F8BC
:1005900000C0DCF8608048F48018CCF8608091F8E6
:1005A00000C05FEA0C7C20D5B1F82CC0A2F80AC0CC
:1005B000D2F80CC04CF4003CC2F80CC0D1F830802A
:1005C0002CF4402C4CEA080CC2F80CC0D0F800C047
:1005D000DCF8648048F48018CCF864800068D0F8B7
:1005E00050C04CF0806CC0F850C00878C0060BD5E5
:1005F0009068D1F818C06FF30D0040EA0C009060CD
:10060000D06840F08060D060087810F0140F14D0EB
:10061000D0685B1C042B40F04040D06000D31B1F0F
:10062000012755F82320D068002806DA55F826005F
:10063000C16821F00041C1608DE020687F1C10601E
:100640004FF000099068D4F80480DFF8C0C16FF360
:100650000D0040EA08009060D4F80880B8F1000F5F
:100660000BD04446D8F80080C2F8048000EA0C00A1
:10067000B4F8048040EA084003E000EA0C00C2F845
:10068000049090600878C006D0680FD5B1F820803B
:1006900020F4F00040EAC840D060D1F81C806FF32D
:1006A000110040EA080040F480201CE0D1F80480EA
:1006B0006FF30E0040EA0800D06091F800805FEA16
:1006C000C87806D0D1F8148020F4403040EA080001
:1006D000D0600878800607D5D068D1F8108020F067
:1006E000406040EA0800D0600878400707D590686D
:1006F000D1F8288020F4404040EA08009060D0689B
:1007000020F0804040F02040D06091F800805FEA07
:10071000887864D5D1F80C8020F0607040EA080039
:100720005CE05B1C042B00D31B1F55F82320D06812
:10073000002813DA55F8261000200AE0CA68761C53
:10074000042E22F00042CA6000D3361F401C55F828
:100750002610B842F2D30220BDE8F08F20687F1C3B
:1007600010609068D4F804806FF30D0040EA080A26
:10077000C2F808A0A06840B10446006850600AEAC8
:100780000C08A08848EA004003E00AEA0C00C2F81E
:10079000049090600878C006D06808D5D1F81C8015
:1007A0006FF3110040EA080040F4802010E0D1F817
:1007B00004806FF30E0040EA080AC2F80CA0087823
:1007C000C00716D0D1F814802AF4403040EA08005F
:1007D000C2F80C0020F0804040F00040D060A468D7
:1007E000002C9ED19068BBF1000F04D040F0004077
:1007F00003E0D068EEE720F000409060D06840F061
:100800008050D06000202B61A6E70000FFFF00C0F1
:10081000F0B5026847F6020E274E4DF2010702F5C9
:100820008052264DD1F800C01368254C23EA0E03F0
:1008300043EA0C0313600B79026891F80CE002F5AF
:100840008052D1F808C01B0343EACE3343EA0C03BD
:10085000D2F804C02CEA070C4CEA030CC2F804C01E
:1008600002684F7B02F580520B6A43EA0747D2F8D1
:10087000003133403B43C2F8003102680B7D02F582
:10088000805291F81DC00F69D2F804611B0143EA40
:100890000C332E403B431E43C2F8046100680B7FBB
:1008A00000F580508A69D0F8081142EAC3722140ED
:1008B0001143C0F80811F0BD00C0FEFFEFEFC0FF0C
:1008C000FFFFC07FF0B50B790C7B0F688A68DB06F1
:1008D0004D7B43EAC4533A438E7B1A43CF7B91F856
:1008E00010C042EA855242EA4652BCF1000F42EA89
:1008F00007537CD000224C7C002C43EAC24278D0C3
:1009000000238E7C0D7F42EA43428F7FD1E905347C
:1009100042EA06424E7F1A43224342EA0532002F42
:1009200042EAC62466D00022CD7F91F8203044EA06
:100930008222002B42EA45227ED0002504684B6AC1
:1009400042EA052291F82870464D1A43CE6A236880
:1009500042EA071232432B401343236091F83C20B4
:1009600091F8383091F8305091F83140520642EA0F
:10097000036291F8326042EA854242EA4444BEB3DF
:1009800000220368384E4F6B44EA02425C683A43E7
:1009900040F20F15344014435C60036891F84060E6
:1009A0004C6CDA6844EA0624AA432243DA6091F8E0
:1009B00054300A6D91F84C4042EA4302ECB30024F3
:1009C0000368B1F848504FF60D76E7011C6F47EA0F
:1009D00005452A43344014431C67026891F8563099
:1009E00091F8555052F8904F43EA450303E02BE04D
:1009F00032E02BE02CE024F003041C431460026876
:100A00008C6DD2F8003D23F072032343C2F8003D01
:100A100091F86020CC6D1AB35FF00003026891F882
:100A2000615091F8621044EA8310D2F8303D2C01F5
:100A300044EAC101084301E00CE00FE023F07B0130
:100A40000143C2F8301DF0BD012254E7012358E7ED
:100A5000012269E7012571E7012292E70124AFE74E
:100A60000123DBE7838004000080F8C0704700F1B9
:100A70002C02F0B5D2E9053452F8231024B1D5691F
:100A800005B1641C002523E00120F0BD0F694FF083
:100A900080760F60CE604E692EB14E698E60CE6852
:100AA00046F00076CE60CE6846F00046CE60166A0C
:100AB0001EB1CE6846F08046CE609669761EAE4284
:100AC00005D95B1C042B00D31B1F52F823106D1C8F
:100AD000A542DBD30068002300F58050C0F8281140
:100AE00018469361F0BD10B500EB8104E46A0AB1C9
:100AF000042903D301214165084610BD226022610B
:100B0000E06840F08070E06023B1A36040F00070C6
:100B10006361E06040F00040E060002010BD00290B
:100B20007DD00268126802F00C02CA620268126884
:100B3000C2F3001281F828200268126802F06002F5
:100B40004A620268126842F30022521C81F8202097
:100B500002681268C2F34022CA770268126842F340
:100B60008022521C8A7702681268C2F3C0224A7738
:100B700002681268C2F300320A770268126802F44F
:100B800000528A610268126802F480424A61026877
:100B90001268C2F300428A740268126842F340424B
:100BA000521C4A740268126842F3C042521C0A7412
:100BB00002681268C2F30052CA7302681268C2F374
:100BC00040528A7302681268C2F380524A73026804
:100BD0001268C2F3C0520A730268126802F0E0623F
:100BE0008A6002681268C2F3C0620A710268126801
:100BF00002F0E0420A6002685268C2F30D024A63E2
:100C00000268526842F30042521C81F832200268A6
:100C10005268C2F3404281F83120026800E062E08D
:100C20005268C2F3804281F8302002685268C2F3F1
:100C3000006281F8382002685268C2F34462CA63D5
:100C40000268D268C2F3002281F840200268D268AC
:100C500002F00F024A640268126FC2F3400281F888
:100C600054200268126F42F3C012521C81F84C20CB
:100C70000268126F02F070020A650268126F120CAD
:100C80008A640268D2F8902002F0010281F85620AE
:100C90000268D2F89020C2F3400281F85520026821
:100CA000D2F8002D02F072028A650268D2F8302D67
:100CB00002F02302CA650268D2F8302DC2F3C002E6
:100CC00081F862200268D2F8302DC2F3001281F858
:100CD00061200068D0F8300D40F38010401C81F88E
:100CE000600000207047012070472DE9F04300F1BB
:100CF0002C0680460C464FF00009D6E9057056F8E0
:100D0000275018B9404600F067F978B3002019E081
:100D1000696949B354B329692160D8F81410616036
:100D2000A4681CB369692160D8F814106160E9688F
:100D30007F1C042FC1F30E0900D33F1FA468401C81
:100D400056F82750B169491E8142E1D874B1EA686A
:100D5000D8F81410C2F30E02A2EB0900814206D3A8
:100D60002969C4E9001011E02969DCE711E069692B
:100D700079B129692160D8F814106160A16841B186
:100D80006A690A60D8F81420801A48600020BDE81B
:100D9000F0830120FBE770B500F12C040D46D4E987
:100DA000056111B900F018F968B1A069761E3044E8
:100DB000042800D3001F54F82000C068C0F30E00C0
:100DC0002860002070BD012070BD0000F8B504004F
:100DD00003D094F8510010B104E00120F8BD204682
:100DE00000F060F9232084F851007148016841F057
:100DF00002010160006800F002000090207A08B152
:100E00004FF4000001F0BEFE206800F5805001683C
:100E100041F00101016000F021FCE02605464FF49D
:100E2000FA7706E000F01AFC401BB84201D9042012
:100E300049E0206800F580500068C007F2D12068C2
:100E4000D0F8000220F4706501F06CFB594A5A4951
:100E500002448A4202D245F4007516E0574A5849C6
:100E600002448A4202D245F440750EE05549564A82
:100E70000144914209D35549554A0844904202D24F
:100E800045F4807501E045F480652068C0F80052A3
:100E900001F048FB4F4A2168B0FBF2F0401EC1F858
:100EA000DC002046FFF7C0FA206800F58050D0F83B
:100EB000001121F4E01141F40021C0F80011616932
:100EC000880704D00120606584F8516085E72068B8
:100ED00047F6FE7300F58050D0F808219A4342EAA5
:100EE0004101C0F8081100214FEA0100E26800EB5F
:100EF000400504EB800302EBC502401C042811608E
:100F000051609160D1609A61F0D3A162032320689F
:100F100000F58050C0F82C312068E26800F5805060
:100F2000C0F814212068E26800F58050C0F8202144
:100F30005FF00002206902EB420604EB820500EB41
:100F4000C600521C042A016041608160C1600161D9
:100F50004161E862EED3E16321646164E164A1640C
:100F6000206800F58050C0F830312068226900F513
:100F70008050C0F81C212268206902F58052483058
:100F8000C2F82801D4E900208088C2F80003606814
:100F90002368D0F801500278102042EA0522C3F8F5
:100FA0000423616584F8510084F852000020F8BDE4
:100FB000F444025800D3CEFEC0E1E40040F1E9FD64
:100FC00040787D0100796CFC005A6202001F0AFA29
:100FD00080F0FA0240420F00F0B5C16B0024466C6D
:100FE0002C302246234650F821503EB30020F0BD5D
:100FF000EE0004F1010419D5521C012A00D10B4660
:10100000491C042900D3091F50F82140E468002C32
:1010100007DB640005D50124C461491C042900D301
:10102000091F8261C0E904130120F0BDAD0013D592
:101030000B46491C012211E050F82150ED68002DAB
:1010400001DB042CD4D34AB350F8231000244FF012
:1010500080764FF040771FE0491C521C0429EBD3E7
:10106000091FE9E70D690D60CE604D690DB18D6016
:10107000CF60CD6845F00045CD60D0F820C0BCF110
:10108000000F02D045F08045CD605B1C042B00D3DF
:101090001B1F641C50F823109442E3D3002181618C
:1010A000A4E70000F0B5006887B0284988424AD11B
:1010B0002748016841F400410160016801F40041E2
:1010C0000591016841F480310160016801F48031CB
:1010D0000591016841F40031016000680025022497
:1010E000009400F400301B4F0B266946CDE9014502
:1010F000CDE904603846039500F0B0F986206946D2
:101100008DE831001448CDE9034600F0A7F93020FE
:1011100069468DE83100CDE90346384600F09EF976
:10112000200369468DE831000C48CDE9034600F004
:1011300095F94FF4205069468DE831000848CDE913
:10114000034600F08BF907B0F0BD000000800240BC
:10115000D8440258000802580000025800040258FF
:10116000001802582DE9F041044600681E46D0F8E8
:101170000032DB0719D1D0F8003223F0787343EA4C
:10118000415121F4F81141EA024141F00D01C0F84A
:10119000001200F063FA4FF47A77054608E000BFCA
:1011A00000F05CFA401BB84202D90120BDE8F08192
:1011B0002068D0F80002C007F2D12068D0F80402FD
:1011C00080B230600020F1E710B519B190F85220DC
:1011D000102A01D0012010BDFFF774FB002010BDC4
:1011E00070B505460068D0F8000220F4706401F084
:1011F00099F91149114A0144914202D244F4007410
:1012000016E00F4A0F4902448A4202D244F4407465
:101210000EE00D4A0D4902448A4209D30C4A0D4999
:101220001044884202D244F4807401E044F48064A3
:101230002868C0F8004270BD00D3CEFEC0E1E400D3
:1012400040F1E9FD40787D0100796CFC005A6202B2
:10125000001F0AFA80F0FA0210B590F85110102918
:1012600001D0012010BD232180F851101022016807
:1012700022230C6844F002040C6001680C6844F0FE
:1012800001040C600168D1F8004D44F00104C1F87C
:10129000004D016801F58051D1F8044144F001048A
:1012A000C1F80441016801F58051D1F8084144F0CA
:1012B0000104C1F80841016801F58051D1F860418D
:1012C00044F48174C1F8604180F8512080F85230B4
:1012D000002010BD90F8511061B3232180F8511007
:1012E0001022016801F58051D1F8043123F0010387
:1012F000C1F80431016801F58051D1F8083123F0BB
:101300000103C1F8083101680B6823F001030B6089
:101310000168D1F8003D43F00103C1F8003D0168C8
:101320000B6823F002030B6080F8512080F85220F4
:1013300000207047012070472DE9F0419046044697
:1013400021B194F85100102804D053E0606D40F0B2
:10135000010007E000222046FFF7FAF820B1606D97
:1013600040F00200606545E0A06A04EB8001401C8B
:1013700004288D69A06201D3001FA0620146206885
:1013800004EB810100F580508969C0F8201100F05C
:1013900065F9102706461FE0206800F58050D0F858
:1013A0006001C0040DD5606DE02140F0080060656B
:1013B000206800F58050D0F86001A06584F85110D5
:1013C00018E0B8F1FF3F07D000F048F9811B414514
:1013D0000AD8B8F1000F07D0E8680028DCDB84F8F1
:1013E00051700020BDE8F081606D40F00400606540
:1013F00084F851700120F5E770B504460068D0F814
:101400000052ED071FD1D0F800029BB2124D20F020
:101410007870C5F8043240EA415020F4F81040EAF0
:10142000024020F00C00001D40F00100C5F8000251
:1014300000F014F94FF47A76054606E000F00EF954
:10144000401BB04201D9012070BD2068D0F80002D5
:10145000C007F3D170BD0000008002402DE9F84FB5
:101460006F4D00224FF001094FF0030E4FF00F0BAC
:101470000B6809FA02F803EA0803434574D14C6883
:10148000022C01D0122C0FD1D4080E69570700EBA3
:101490008404A246246AFF0E0BFA07FCBE4024EA2D
:1014A0000C042643CAF820600F79540006680EFA2F
:1014B00004FC07F0030726EA0C06A7403743076041
:1014C0004E68012E05D0022E03D0112E01D0122E0F
:1014D0000FD18668CF6826EA0C06A740374387609D
:1014E00046680F7926EA0806C7F300179740374386
:1014F0004760C7688E6827EA0C07A6403E43C6606F
:101500004C68E40030D5474C266846F00206266059
:10151000246822F0030606F1B04604F002040094A9
:101520009407270FD6F80844DFF8FC800BFA07FC75
:10153000404524EA0C0402D14FF0000C41E0DFF8F2
:10154000ECC0604502D14FF0010C3AE0DFF8E0C09A
:10155000604502D14FF0020C33E0DFF8D8C060459F
:1015600003D14FF0030C2CE053E0DFF8CCC0604512
:1015700002D14FF0040C24E0DFF8C0C0604502D176
:101580004FF0050C1DE0DFF8B8C0604502D14FF008
:10159000060C16E0DFF8ACC0604502D14FF0070C36
:1015A0000FE0DFF8A4C0604502D14FF0080C08E05E
:1015B000DFF898C0604502D14FF0090C01E04FF010
:1015C0000A0C0CFA07FC4CEA040CC6F808C42C6898
:1015D0004E6824EA0304F60300D51C432C606C68B3
:1015E0004E6824EA0304B60300D51C436C604FF038
:1015F000B0444F682668FF0226EA030600D51E4362
:1016000026604F686668BF0226EA030600D51E43BF
:101610006660521C102AFFF42BAFBDE8F88F000063
:1016200080000058F4440258000002580004025898
:1016300000080258000C025800100258001402580A
:1016400000180258001C02580020025800240258BA
:101650000AB10183704741837047000001488068E8
:10166000704700003000002402488168027811446D
:101670008160704730000024032010B500F0A6F808
:10168000002000F007F808B1012010BD00F070F84C
:10169000002010BD70B50D4D04464FF47A700C4A11
:1016A00029781268B0FBF1F0B2FBF0F001F074FAA7
:1016B00048B9102C07D200222146501E00F066F8CF
:1016C00000206C6070BD012070BD0000300000245F
:1016D0003C000024F0B5154C4378211D0A1D236001
:1016E0000378F3B143680B60057BC67A817A437B4C
:1016F0002D07847B45EA0665C77B90F809C0067A0A
:1017000090F800E045EAC14040EA834040EA4440A6
:1017100040EA074040EA0C2040EA460040EA0E005A
:1017200001E0002008601060F0BD000098ED00E0CE
:10173000BFF35F8F044800210368034A23F480331A
:10174000036070321160704724ED00E0074A40F0FA
:101750000100064970321060086840F4803008606B
:10176000BFF34F8FBFF36F8F7047000024ED00E091
:10177000054808B5016841F002010160006800F009
:101780000200009008BD0000F44402580E4BF0B473
:101790001B680D46C3F30223C3F10706042E00D9CC
:1017A0000426191D072901D2002300E0DB1E0124B5
:1017B00004FA06F19C40491E2940641E99401440D9
:1017C0002143F0BC02F072B90CED00E0064900F0D4
:1017D000070210B54FF6FF040868044B204040EAAA
:1017E00002201843086010BD0CED00E00000FA056F
:1017F00010B500F0DDFE08494FF480730A6893FAD3
:10180000A3F3064902F47062B3FA83F3DA40044B9F
:101810009A5CD040086010BD184402583C00002477
:10182000FAB6000810B500F07DFE074910220968DD
:1018300092FAA2F201F07001B2FA82F2D140034AA8
:10184000515CC84010BD000020440258FAB60008A0
:10185000424A30B5414D141D13681435DFED400A7E
:101860001268291FB7EE001A24682D6813F00303CD
:1018700004F01004C2F30532C5F3CC0515FB04F4E3
:1018800000EE104AB8EE400A05D0364C012B5DD070
:10189000022B5BD159E0314C334B283C2568AD0617
:1018A00015D525680C68C5F3C105C4F30804EB40E1
:1018B00001EE904AB3FBF2F2F8EE611A40EE201A04
:1018C00000EE102A71EE810AB8EE400A10E00C68B2
:1018D000B3FBF2F2C4F3080401EE904AB8EE612AB9
:1018E00001EE902A00EE202AB8EE610A72EE010A9B
:1018F0000A6820EE200AC2F34622521C00EE902A0B
:10190000F8EE600A80EE201AFCEEC10AC0ED000A73
:101910000A68C2F30642521C00EE902AF8EE600AF2
:1019200080EE201AFCEEC10AC0ED010A0968C1F37D
:101930000661491C00EE901AF8EE600A80EE201A4B
:10194000BCEEC10A80ED020A30BD084C0B68B4FB46
:10195000F2F2C3F3080301EE903ABFE728440258BD
:101960000000003900093D000090D00300127A0009
:10197000424A30B5414D141D13681C35DFED400A55
:101980001268291FB7EE001A24682D6813F00303AC
:1019900004F48074C2F30552C5F3CC0515FB04F4BE
:1019A00000EE104AB8EE400A05D0364C012B5DD04F
:1019B000022B5BD159E0314C334B283C2568AD06F6
:1019C00015D525680C68C5F3C105C4F30804EB40C0
:1019D00001EE904AB3FBF2F2F8EE611A40EE201AE3
:1019E00000EE102A71EE810AB8EE400A10E00C6891
:1019F000B3FBF2F2C4F3080401EE904AB8EE612A98
:101A000001EE902A00EE202AB8EE610A72EE010A79
:101A10000A6820EE200AC2F34622521C00EE902AE9
:101A2000F8EE600A80EE201AFCEEC10AC0ED000A52
:101A30000A68C2F30642521C00EE902AF8EE600AD1
:101A400080EE201AFCEEC10AC0ED010A0968C1F35C
:101A50000661491C00EE901AF8EE600A80EE201A2A
:101A6000BCEEC10A80ED020A30BD084C0B68B4FB25
:101A7000F2F2C3F3080301EE903ABFE7284402589C
:101A80000000003900093D000090D00300127A00E8
:101A90002DE9FC5F044650F8241B002500902E46DB
:101AA0000801FE4FDFF8F8931DD5606E50B1B0F518
:101AB000801F0CD0B0F5001F0ED0B0F5401F1DD018
:101AC00001250FE0386840F40030386016E002214C
:101AD000201D01F0EBFA03E00098022101F064FB05
:101AE00005000BD02E462088C00523D5606D052843
:101AF0001ED2DFE800F00C11161B1B00626ED9F835
:101B0000001021F440111143C9F80010EBE73868C8
:101B100040F40030386009E00021201D01F0C6FAD1
:101B200003E00098002101F03FFB05466DB100E0A5
:101B300001252E432088800528D5A06D80281ED041
:101B40000CDC90B140280ED114E0626DD9F8001081
:101B500021F007011143C9F80010EBE7C02813D0AA
:101B6000B0F5807F10D001250FE0386840F40030D8
:101B7000386009E00021201D01F098FA03E0009888
:101B8000002101F011FB054695B12E432088DFF8B6
:101B90001083400508F108082CD5D4F8A400B0F54E
:101BA000800F20D00DDCA0B1B0F5001F0FD115E0E3
:101BB000A26DD9F8001021F4E0711143C9F80010AA
:101BC000E4E7B0F5C00F13D0B0F5000F10D0012539
:101BD0000FE0386840F40030386009E00021201D33
:101BE00001F064FA03E00098002101F0DDFA0546F7
:101BF00075B12E43208800052DD5D4F8A800B0F18A
:101C0000007F21D00EDCA8B1B0F1807F10D116E0AA
:101C1000D4F8A420D8F8001021F460011143C8F8CA
:101C20000010E7E7B0F1407F13D0B0F1806F10D023
:101C300001250FE0386840F40030386009E00021E9
:101C4000201D01F033FA03E00098002101F0ACFA06
:101C500005466DB12E43206880011FD5A06CD8B118
:101C600010280FD0202812D0302815D0012514E0DC
:101C7000D4F8A820D8F8001021F0E0611143C8F88A
:101C80000010E8E7386840F40030386004E00221D2
:101C9000201D01F00BFA05466DB12E432088C004CB
:101CA0002BD5E06DB0F5005F20D00DDCA0B1B0F514
:101CB000805F0FD115E07A48A26C001F016821F007
:101CC000300111430160E9E7B0F5405F13D0B0F592
:101CD000804F10D001250FE0386840F400303860A4
:101CE00009E00021201D01F0E1F903E00098002146
:101CF00001F05AFA054685B12E432088800429D583
:101D0000206EB0F5403F23D010DC08B3B0F5803F23
:101D100014D0B0F5003F0FD115E0E26DD9F80010F6
:101D200021F4E0411143C9F80010E6E7B0F5802F37
:101D30000ED0B0F5A02F0BD001250AE00121201D07
:101D400001F0B4F903E00098012101F02DFA0546F5
:101D50008DB12E43208840042AD5D4F8AC00B0F1D0
:101D6000405F23D010DC08B3B0F1805F14D0B0F135
:101D7000005F0FD115E0226ED9F8001021F4E021A8
:101D80001143C9F80010E5E7B0F1804F0ED0B0F173
:101D9000A04F0BD001250AE00121201D01F086F99A
:101DA00003E00098012101F0FFF905466DB12E43D3
:101DB000208800041FD5E06ED8B1B0F1805F0ED04E
:101DC000B0F1005F10D0012514E0D4F8AC20D8F8B1
:101DD000001021F0E0411143C8F80010E8E738682E
:101DE00040F40030386004E00121201D01F05EF96C
:101DF00005466DB12E432068C0011ED5606CD0B180
:101E000001280ED0022811D0032814D0012513E098
:101E1000E26ED9F8001021F040511143C9F80010CA
:101E2000E9E7386840F40030386004E00221201D02
:101E300001F03CF9054685B12E432068DFF85CB01F
:101E40004002ABF11C0B1FD51648016841F48071AC
:101E50000160FFF703FC824610E01148626C001F2E
:101E6000016821F0030111430160E6E7FFF7F6FB8B
:101E7000A0EB0A00642801D9032504E009480068A2
:101E8000C005F3D5C5B12E432078DFF814A0C007F4
:101E90000AF1040A79D0A06F182805E02C440258F2
:101EA00050440258004802586DD05BDCC0B308288B
:101EB0005ED010285AD161E0DFF880A4B4F8B010E9
:101EC000DAF8000001F4407100F44070884211D04B
:101ED000DAF80010DAF8002021F4407142F4803280
:101EE000CAF80020DAF8002022F48032CAF8002074
:101EF000CAF80010D4F8B000B0F5807F15D1FFF714
:101F0000ADFB01900DE000BFFFF7A8FB0199411A5E
:101F100041F28830814204D9032546F00306B3E735
:101F200031E0DAF800008007EED5D4F8B010C1F344
:101F30000120032858460DD0016821F47C5101602E
:101F4000B4F8B020DAF80010C2F30B021143CAF85B
:101F5000001099E7FA4A036802EA111223F47C514F
:101F60001143ECE720280ED028280CD001250BE0E7
:101F70000121201D01F09AF804E006E000980121FB
:101F800001F012F905465DB12E43207880071ED579
:101F9000606F062819D2DFE800F0160C111616162D
:101FA000A26FDAF8001021F038011143CAF80010CE
:101FB000EBE70121201D01F079F803E000980121F1
:101FC00001F0F2F8054675B100E001252E432078B6
:101FD00040071FD5D4F89000062819D2DFE800F09A
:101FE000160C11161616626FDAF8001021F00701B0
:101FF0001143CAF80010EAE70121201D01F056F84C
:1020000003E00098012101F0CFF805469DB100E002
:1020100001252E43207880062BD5D4F88C00B0F112
:10202000405F24D011DC10B3B0F1805F15D0B0F167
:10203000005F10D116E0D4F89020D8F8001021F0FD
:1020400007011143C8F80010E4E7B0F1804F0ED04B
:10205000B0F1A04F0BD001250AE00021201D01F0B6
:1020600025F803E00098022101F09EF805468DB1A5
:102070002E43207840062BD5D4F89800B0F5406F59
:1020800024D011DC10B3B0F5806F15D0B0F5006F1F
:1020900010D116E0D4F88C20DAF8001021F0E041DD
:1020A0001143CAF80010E4E7B0F5805F0ED0B0F538
:1020B000A05F0BD001250AE00021201D00F0F6FFF3
:1020C00003E00098022101F06FF805468DB12E4320
:1020D000207800062BD5D4F89C00B0F5C04F24D052
:1020E00011DC10B3B0F5005F15D0B0F5804F10D102
:1020F00016E0D4F89820D8F8001021F4E0511143EC
:10210000C8F80010E4E7B0F5004F0ED0B0F5204F4E
:102110000BD001250AE00021201D00F0C7FF03E0DD
:102120000098022101F040F8054665B32E4320785F
:1021300000070BD5D4F88010B1F5805F2DD0DAF808
:10214000002022F440520A43CAF800202078C0063A
:102150000BD5D4F89410B1F5807F24D0D8F80020A6
:1021600022F440720A43C8F80020206800032CD5EE
:10217000D4F8A000E8B1B0F5803F1FD0B0F5003F23
:1021800021D0012520E0D4F89C20D8F8001021F4BB
:1021900060411143C8F80010C9E70098022101F01E
:1021A00003F80643D2E70098022100F0FDFF064342
:1021B000DBE70021201D00F079FF03E000980221F9
:1021C00000F0F2FF054685B12E432068400322D57A
:1021D000D4F88400B0F5801F11D0B0F5001F13D0E3
:1021E000B0F5401F15D0012514E0D4F8A020D8F890
:1021F000001021F440311143C8F80010E5E73868B9
:1022000040F40030386004E00098012100F0CCFF79
:10221000054655B12E432068C0031CD5E06C70B153
:10222000B0F5803F10D0012514E0D4F88420DAF80E
:10223000001021F440111143CAF80010EBE7386890
:1022400040F40030386004E00221201D00F02EFF31
:102250000546C5B12E432068800004D500980221B0
:1022600000F0A2FF0643206880031BD5E06FB8B1E1
:10227000B0F5807F10D0B0F5007F11D0B0F5407F71
:102280000ED001250DE02D48E26C2438016821F4C0
:10229000803111430160DEE7386840F40030386077
:1022A000F5B32E432068C00207D5226FD9F800107D
:1022B00021F000411143C9F800102068C00008D582
:1022C000D4F8B420DBF8001021F480411143CBF89E
:1022D00000102068800207D5A26ED9F8001021F006
:1022E00080711143C9F80010206840000CD5DBF85C
:1022F000001021F40041CBF80010DBF80010D4F8F6
:10230000B8201143CBF800102068002807DA0B48EA
:10231000226D2438016821F040511143016000E032
:1023200003E07EB10120BDE8FC9FE26FDAF8001007
:1023300021F440711143CAF80010B3E77044025809
:10234000CFFFFF000020EEE72DE9F047DFF8C49152
:1023500004460E46D9F8000000F00700B0420CD247
:10236000D9F8001021F007013143C9F80010D9F85D
:10237000000000F00700B04272D12078DFF89881A9
:10238000800707D5E268D8F8001021F00F0111434B
:10239000C8F800102078C00767D05F49A368D8F854
:1023A0000020183922F470621A43C8F800206068CF
:1023B00002281CD003281DD0096801281DD0490718
:1023C000002963DA544D083D296821F007010143D3
:1023D0002960FFF743F96168074641F28830022916
:1023E00014D0032920D0012982462AD039E0096877
:1023F0008903E5E709688901E2E7C905E0E700BF6D
:10240000FFF72CF9C11B514501D926E08246286807
:10241000C0F3C2000228F3D127E000BFFFF71EF986
:10242000C11B514501D918E082462868C0F3C2009B
:102430000328F3D119E000BFFFF710F9C11B514584
:102440000BD82868C0F3C2000128F5D10DE000BF09
:10245000FFF704F9C11B514503D90320BDE8F087FC
:1024600014E0286810F0380FF2D1D9F8001048466F
:1024700001F00701B1420BD9016821F00701314396
:102480000160006800F00700B04201D00120E5E7DC
:102490002078400707D52269D8F8001021F0700194
:1024A0001143C8F8001021781B48001D090705D505
:1024B0006269016821F07001114301602178C90649
:1024C00005D5A269016821F4E0611143016020781B
:1024D000800607D51048E2690830016821F07001D4
:1024E0001143016000F064F8D8F800104FF48072D6
:1024F00092FAA2F201F47061B2FA82F2D140074A74
:10250000515CC840064908600020FFF7C3F800206E
:10251000A4E700000020005218440258FAB6000850
:102520003C00002410B5FFF763F9084901230A684D
:1025300093FAA3F3064902F00F02B3FA83F3DA40E9
:10254000044B9A5CD040086010BD0000184402584B
:1025500040000024FAB6000810B5FFF7E3FF074972
:102560001022096892FAA2F201F07001B2FA82F226
:10257000D140034A515CC84010BD00001C440258C1
:10258000FAB6000810B5FFF7CDFF07494FF4807287
:10259000096892FAA2F201F4E061B2FA82F2D14043
:1025A000024A515CC84010BD1C440258FAB60008EB
:1025B0004749F0B547480968454B103B11F03804CE
:1025C00009D00111082C04D0C210102C0BD0182CEB
:1025D0000BD00846F0BD19688906FBD51968C1F310
:1025E000C101C840F0BD1046F0BD394CDFF8E0C075
:1025F0001834261D0CF1240C2768351D2468DFEDE6
:10260000360AB7EE001A3668DCF800C017F0030788
:1026100006F00106C4F30514CCF3CC0C1CFB06F643
:1026200000EE106AB8EE400A09D0012F01D0022F47
:102630003BD02868B1FBF4F1C0F308003AE0196818
:10264000890615D51A682968C2F3C102C1F30801C9
:10265000D04001EE901AB0FBF4F0F8EE611A40EEB3
:10266000201A00EE100A71EE810AB8EE400A0BE063
:102670002968B0FBF4F0C1F3080101EE901AB8EE3E
:10268000612A01EE900A1BE020EE200A2868C0F3C0
:102690004620401C00EE900AF8EE600A80EE201AF8
:1026A000BCEEC10A10EE100AF0BD2868B2FBF4F1CE
:1026B000C0F3080001EE900AB8EE612A01EE901A0C
:1026C00000EE202AB8EE610A72EE010ADCE7000093
:1026D000104402580090D003000000392DE9F04763
:1026E000FF4C05460078DFF8F883103CFC4FC0072C
:1026F00008F118084CD03868C0F3C20002281AD07C
:102700003868C0F3C200032805D1D8F8000000F0F3
:10271000030002280FD06868B0F5803F12D010B1D6
:10272000B0F5A02F18D0206820F4803020602068F9
:1027300020F4802009E02068800329D568680028FB
:1027400076D025E0206840F480302060686890B141
:10275000FEF784FF06460AE0206840F480202060EF
:10276000F0E700BFFEF77AFF801B64287ED8206860
:102770008003F7D50CE0FEF771FF064605E000BFC9
:10278000FEF76CFF801B6428F0D820688003F7D424
:102790002878D34E0C3E80075DD538684FF47C3ADC
:1027A00010F0380F13D03868C0F3C200032803D1EB
:1027B000D8F8000080070AD0E868C0B3216821F08B
:1027C000190101432160FEF749FF814620E020689E
:1027D000400702D5E8680028B2D0E968206820F0F8
:1027E000190008432060FEF739FF814606E000BF6C
:1027F000FEF734FFA0EB09000228B7D82068400795
:10280000F6D508E0FEF72AFFA0EB09000228ADD8B4
:1028100020684007F6D5286932689AFAAAF1B1FA19
:1028200081F1884022F47C310143316013E000E003
:10283000AAE0206820F001002060FEF70FFF81462B
:1028400006E000BFFEF70AFFA0EB090002288DD8C2
:1028500020684007F6D42878C00649D538684FF07C
:10286000F84AC0F3C200012817D000E0DAE0386867
:10287000C0F3C200032805D1D8F8000000F003001F
:1028800001280AD0E8690028206822D040F08000A2
:102890002060FEF7E3FE81460CE02068C0050CD501
:1028A000E869802870D108E0FEF7D8FEA0EB0900A7
:1028B0000228A2D82068C005F6D5286A32689AFA9C
:1028C000AAF1B1FA81F1884022F0F8410143316068
:1028D0000EE020F080002060FEF7C0FE064604E017
:1028E000FEF7BCFE801B022887D82068C005F7D4FD
:1028F0002878000729D57A4869696430002981461B
:10290000016811D041F001010160FEF7A7FE064603
:1029100005E000BFFEF7A2FE801B022897D8D9F879
:1029200000008007F6D510E021F001010160FEF7FC
:1029300095FE064605E000BFFEF790FE801B0228CC
:1029400070D8D9F800008007F6D42878800625D5FD
:10295000A8690028206810D040F480502060FEF75D
:102960007DFE064605E000BFFEF778FE801B0228CC
:1029700058D820688004F7D510E020F480502060FB
:10298000FEF76CFE064606E0D7E000BFFEF766FEE7
:10299000801B022846D820688004F7D42878400796
:1029A0004FD5DFF84091D9F8001041F48071C9F893
:1029B0000010FEF753FE064605E000BFFEF74EFE90
:1029C000801B64282ED8D9F80000C005F6D5444EE7
:1029D000A868603601280AD008B1052813D03068ED
:1029E00020F001003060306820F0040002E0306820
:1029F00040F001003060A86841F2883A98B1FEF7D3
:102A00002DFE81460AE0306840F004003060EEE7B9
:102A1000FEF724FEA0EB0901514503D8306880077A
:102A2000F6D50EE088E0FEF719FE814606E000BF0D
:102A3000FEF714FEA0EB090151457DD830688007F0
:102A4000F6D4686AE8B33968C1F3C201032974D0C7
:102A50000228206820F08070206003D0FEF7FEFD81
:102A6000054685E0FEF7FAFD064604E0FEF7F6FDB2
:102A7000801B022879D820688001F7D4EB6A40F2E5
:102A8000F332D8F800104FF4FE0755F8286F914341
:102A900041EA03113143C8F80010287B4FF0FE4C87
:102AA0000F4EB5F8088040022B8A20362A7DA8F107
:102AB0000108311DA0F5007080B25B1EC8F3080844
:102AC00000E058E0521E07EA034340EA08001843BA
:102AD0004FF6F8730CEA0262104330600A6803E0B4
:102AE000104402580048025893FAA3F72E6A24486B
:102AF0009A43B7FA87F7BE4032430A600168AA6971
:102B000021F00C01114301600168EA6921F0020122
:102B100011430160016841F480310160016841F4B2
:102B200000310160016841F480210160016841F0D9
:102B300001010160206801E017E01EE040F08070B4
:102B40002060FEF78BFD054605E000BFFEF786FD21
:102B5000401B022809D820688001F7D50BE000BF90
:102B6000FEF77CFD401B022802D90320BDE8F08758
:102B700020688001F4D40020F8E70120F6E7000087
:102B80002C44025803490A6822F4600202430A6096
:102B90007047000004040058401EB0F1807F10B55B
:102BA00001D3012010BD4FF0E02460610F216017B8
:102BB00000F07CFF0020A0610721216110BD10B54D
:102BC000040003D094F8790010B107E0012010BD93
:102BD000002084F87800204600F026F8242084F8AD
:102BE00079002068016821F001010160204600F0B1
:102BF000A5FC0128EBD0606B10B1204600F00CFC66
:102C00002068416821F4904141602068816821F08A
:102C10002A0181602068016841F0010101602046BD
:102C2000BDE8104000F05CBC10B586B0044614212D
:102C30006846FDF797FB13492068884220D1124867
:102C4000016841F480210160006800F48020059053
:102C50000D480838016841F0080101600068072349
:102C6000022200F00800059000204FF4407100910E
:102C70006946CDE90120CDE903030448FEF7EEFBE8
:102C800006B010BD00480040E8440258000C02584D
:102C9000FEE738B504466A460020009001216369CA
:102CA0002068984700286FF0040525DB636901213F
:102CB00020686A46984700281EDB0098400701D428
:102CC000012038BD6369002120686A4698470028C2
:102CD00012DB0098C10408D44FF4045181431CD086
:102CE00081041CD4C0051CD415E063691F21206831
:102CF0006A469847002801DA284638BD0098C10482
:102D000001D4062038BDC0F38200062805D0022871
:102D100005D0052805D0052038BD022038BD032088
:102D200038BD042038BD2DE9F8430446002000904A
:102D3000064660680025B8BBA06800B18047202027
:102D400020606FF00407636912216A463046984795
:102D5000002801DA3D4607E0009800F01F00B0426D
:102D600002D10025266002E0761C1F2EEBD92068D8
:102D70001F2802D96FF002053BE045BB2369002103
:102D80004FF400429847002824DB63690021206843
:102D90006A46984700281BDBA06980474FF4FA7801
:102DA00006466FF001090EE017E0A0698047801B1E
:102DB000404507D86369002120686A469847002883
:102DC00001DA05E04D4600980004EED42DB110E084
:102DD0003D460EE06FF003050BE0A06980474FF41D
:102DE000FA670646A0698047801BB842FAD90120DD
:102DF00060602846BDE8F88388B1CA687AB18A68FD
:102E00006AB10A695AB10A6882604A68C260CA68CF
:102E100042618A68026109698161002070474FF050
:102E2000FF3070477FB5FEF783FC01258DF80F500A
:102E300000248DF80E4007208DF8080003268DF839
:102E40000B60174968468DF800508DF80D408DF8DD
:102E50000A4001918DF801408DF809408DF80C4031
:102E6000FEF738FC0D208DF808008DF80F406846FD
:102E70008DF80B608DF80E500A498DF800508DF8D2
:102E80000D408DF80A4001918DF801508DF80940F0
:102E90008DF80C40FEF71EFC0420FEF757FC7FBDAA
:102EA000000004300040043030B587B0142168467B
:102EB000FDF758FA2248016841F0040101600168F9
:102EC00001F004010591016841F080010160016891
:102ED00001F080010591016841F001010160016884
:102EE00001F001010591016841F0020101600168F2
:102EF00001F002010591016841F0080101600168DB
:102F000001F008010591016841F04001016000688D
:102F10004FF481440B4D012200F040002146059002
:102F20002846FEF795FB01210220CDE90041CDE9BD
:102F3000021069462846FEF791FA07B030BD00003E
:102F4000E044025800040258FEB53B4CC021A822C0
:102F5000251D00272170F0236270FF20A7702E1D11
:102F6000E370012328706870A870EF703170727080
:102F7000B770F37003F016FA2068E1782F4A90FAE0
:102F800080FC2F4B90FA80FE00BA0C060CF47F4CAC
:102F9000084344EA0C240EF47F0CA5F1100144EA26
:102FA0001C2444EA106008602868E97890FA80FCE4
:102FB00005BA00BA0C06084305F47F450CF47F0CF3
:102FC000A6F1100144EA052444EA1C2444EA1060F6
:102FD00008603068F17805BA06BA00BA0C060843F2
:102FE000154905F47F45091F06F47F0644EA0524C8
:102FF00044EA162444EA106008600097CDE90132E3
:103000000A1F10480B46083903F0EEFD0D4803F087
:103010008FFE0C4890F8330040070A4802D503F0B1
:10302000FCFE01E003F08AFE03B007490548BDE855
:10303000F04003F0C5BE00000C0000246D4B0008FA
:10304000BD4D0008EC000024B54C0008034810B545
:1030500001F0F8FEBDE8104004F08ABEEC00002448
:103060000F48002110B50D4C0C224FF4E1330460E1
:10307000C0E90131C160C0E904128161C16101622E
:1030800041628162C16201634163FFF798FD0028DC
:1030900003D0BDE81040FDF7E9BC10BD004800407A
:1030A00030020024FEE77047704700002DE9F0472A
:1030B0003C4E044689464FF0000A3068C043800702
:1030C0000AD0384D283D286820F080602860FEF73F
:1030D000C5FA0746A84608E00120BDE8F08700BF12
:1030E000FEF7BCFAC01B022855D8D8F80000000132
:1030F000F6D4206831684FF4FE0C4FF0FE4721F4FF
:103100007C3141EA00303060207AA688A3894002F1
:10311000244D761E23495B1E227C1035091DA0F527
:10312000007080B2521EC6F3080630430CEA034317
:10313000184307EA0262104328600868626920F0B9
:10314000C000104308600868A26920F02000104306
:103150000860B9F1000F11D00868B9F1010F11D062
:1031600040F400100860D8F80000444640F0806049
:10317000C8F80000FEF772FA05460EE0086840F451
:103180000020EFE740F48010ECE700BFFEF766FA9E
:10319000401B022801D903209FE720680001F5D5D4
:1031A00050469AE7284402582DE9F0473C4E044621
:1031B00089464FF0000A3068C04380070AD0384D76
:1031C000283D286820F080502860FEF747FA07461F
:1031D000A84608E00120BDE8F08700BFFEF73EFAF0
:1031E000C01B022855D8D8F800008000F6D42088EB
:1031F00031684FF4FE0C4FF0FE4721F07C7141EA3C
:1032000000503060207AA688A3894002244D761EA3
:1032100023495B1E227C1835091DA0F5007080B281
:10322000521EC6F3080630430CEA0343184307EA6C
:103230000262104328600868626920F4406010430D
:1032400008600868A26920F4007010430860B9F1B2
:10325000000F11D00868B9F1010F11D040F0807053
:103260000860D8F80000444640F08050C8F80000DC
:10327000FEF7F4F905460EE0086840F48000EFE739
:1032800040F40000ECE700BFFEF7E8F9401B02281D
:1032900001D903209FE720688000F5D550469AE7C2
:1032A000284402580E49002070B50860BFF34F8FC4
:1032B000081F43F6FF7300680A4DC0F34E31C0F398
:1032C000C90203EA4114104644EA80762E60401E8B
:1032D000FAD2491EF5D2BFF34F8FBFF36F8F70BD87
:1032E00084ED00E074EF00E07047FEF7BDB9000028
:1032F00070B5CCB04C212FA8FDF734F8202142A89E
:10330000FDF730F8BC216846FDF72CF81F4801682E
:1033100021F0040101601D480C300025016841F4D2
:1033200040410160016801F440414A91016889040B
:10333000FCD50120022402046421CDE92F02389437
:103340000C22CDE93940CDE93B143D942FA83E94A1
:10335000CDE93F254195FFF7C1F94020082306013B
:10336000CDE9453042ABCDE9470649903F210322E4
:1033700083E82600022142A8FEF7E6FF68461D9575
:103380000094FEF785FB4CB070BD00000C4802585D
:103390001D4AF0B51D49146800201C4B44F470040C
:1033A000146010330A681A4C42F001020A60186077
:1033B0000D68164A25400D601832131D1C1D134D53
:1033C0001060283518602A1D2060131D1C1D286000
:1033D000251D10602A1D1860131D20601C1D28600B
:1033E0001060186020600A680124084B064FE6064A
:1033F000084D6033803F22F480220A601860C5F8CF
:1034000008413E60F0BD000088ED00E00044025835
:103410007FEDF6EA0080005190F83410C90706D01D
:103420000168836B4A6822F400321A434A6090F8BC
:103430003410890706D50168C36B4A6822F48032CC
:103440001A434A6090F83410490706D50168036CA6
:103450004A6822F480221A434A6090F8341009071F
:1034600006D50168436C4A6822F400421A434A6058
:1034700090F83410C90606D50168836C8A6822F476
:1034800080521A438A6090F83410890606D5016884
:10349000C36C8A6822F400521A438A6090F8341090
:1034A000490611D50168036D4A6822F480121A4357
:1034B0004A60016DB1F5801F06D10168436D4A680D
:1034C00022F4C0021A434A6090F83410090606D567
:1034D0000168826D486820F40020104348607047FE
:1034E000F8B500260446C667FEF7B8F8054620681A
:1034F0006FF07E470068000708D500222B464FF486
:1035000000112046009700F08DFA60B9206800682D
:1035100040070AD500222B464FF480012046009731
:1035200000F080FA08B10320F8BD202084F879006B
:1035300084F8786084F87A000020F8BD2DE9F04F17
:1035400004460268816887B0C369D4E90465806A6B
:103550003143F84E1D4313682943DFF8DC930843D9
:103560008025334000210343136020680F46E36841
:10357000426822F440521A4342602368A0694B45D6
:1035800001D0226A1043A26AB2F1005F03D1D4E9EC
:103590000B2632431043D3F808C0DFF8A083E84E6F
:1035A000E84A0CEA080C4CEA000CC3F808C0206892
:1035B000D4F824C0C36A23F00F0343EA0C03C362A8
:1035C0002068B04210D1126802F03802182A74D074
:1035D00005DCCAB3082A7AD0102A47D179E0202A1C
:1035E0007BD0282A7CD17AE0D74B984209D1126847
:1035F00002F00702062A73D2DFE802F053696B6D0E
:103600006F71D24B984209D1126802F00702062A64
:1036100066D2DFE802F0465C5E606264CC4B9842A2
:1036200009D1126802F00702062A59D2DFE802F037
:10363000394F51535557C74B98420BD1126802F07E
:103640000702062A4CD200E00EE0DFE802F02A4032
:1036500042444648C04B984209D1126802F03802F1
:10366000182A38D0BBDCB4E74FF0010538E0BB4B7B
:10367000984209D1126802F00702062A30D2DFE828
:1036800002F01026282A2C2EB54B98420BD1126836
:1036900002F00702062A23D2DFE802F003191B1DFD
:1036A0001F2100251CE048451AD1A64A121D1268A8
:1036B00002F00702062A13D202E00CE007E00CE059
:1036C000DFE802F0030507090B0D022508E00425D9
:1036D00006E0402504E0082502E0102500E0202552
:1036E000A04EDFF884A24845DFF880B27DD1102DCE
:1036F00031D006DC022D09D0042D0AD0082D2FD19F
:1037000011E0202D29D0402D2AD107E0FEF78AF8BC
:1037100013E06846FEF79CF801980EE003A8FEF758
:1037200027F9049809E0DBF800005946800610D517
:103730000968C1F3C1012AFA01F0002811D06168BB
:10374000894601EB410181420AD8B0EB093F07D815
:1037500008E05046F3E78648F1E74FF40040EEE713
:10376000012759E1102D4FF000085BD006DC022D37
:1037700011D0042D20D0082D04D13AE0202D57D0AF
:10378000402D1ED001277B4AA0F540719142E7D819
:103790002168C86040E1FEF745F8626A00234146AF
:1037A00036F81220FCF794FD6268090241EA1061C4
:1037B000034650081B0216E06846FEF749F80198D8
:1037C00003E003A8FEF7D4F804980023616A36F8F2
:1037D00011201946FCF77CFD626803461D0E500857
:1037E0001B0245EA0121181800E036E041EB080110
:1037F00014E0DBF800005946800609D5096800236B
:10380000C1F3C1012AFA01F0616A36F8112015E00E
:10381000606A002336F8102050460FE00023FCF7C2
:1038200057FDB0E7606A002336F81020504805E0E5
:10383000606A002336F810204FF400400021FCF7A6
:1038400047FD02464FEA5900130E120210184A466D
:1038500043EA012141EB0801E0E7E3694FF400424C
:10386000934257D1082D2BD005DC95B1012D13D0F3
:10387000042D06D118E0102D3DD0202D43D0402D31
:1038800018D00127226821F00F00C1F3420108433C
:103890009CE0FEF761FE01E0FEF774FE0146606AFF
:1038A00036F8102060682BE06846FDF7D1FF626AA9
:1038B000019922E003A8FEF75BF8626A04991CE014
:1038C000DBF800105846626A890608D5036836F8A6
:1038D00012206068C3F3C1032AFA03F110E036F83E
:1038E00012206068BAFBF2F1490001EB5001B1FB14
:1038F000F0F081B2C6E71E49626A606836F81220AD
:10390000B1FBF2F1F0E7616A606836F81110B2FBC2
:10391000F1F1E9E7082D5BD02EDC55B1012D46D041
:10392000042D7FF41DAF6846FDF792FF626A01998E
:103930002DE039E0F369FFCF000C0058FFF4FF11D0
:103940000010014054440258004400400048004028
:10395000004C00400050004000140140007800403E
:10396000007C0040E2B600080090D00300440258FA
:1039700000093D00FFFC0F00102D3ED0202D3FD050
:10398000402DCED103A8FDF7F3FF626A0499D4E974
:10399000003036F81220B1FBF2F101EB5001B1FB1F
:1039A000F0F080B2D86037E0FEF7D6FD01E0FEF718
:1039B000E9FD0146606A36F81030D4E90020B1FB19
:1039C000F3F101EB5001B1FBF0F080B2D06023E0E5
:1039D000DBF800205946636A920608D50D686168D5
:1039E00036F81330C5F3C1042AFA04F20CE036F8B5
:1039F00013306168BAFBF3F208E0094A636A00E039
:103A0000636A616836F81330B2FBF3F202EB5102DD
:103A1000B2FBF1F189B2C16007B03846BDE8F08F62
:103A200000093D002DE9F041984617460E46044630
:103A3000069D1DE0681C1BD02DB1FDF70FFEA0EB0D
:103A40000800A84214D92168202000220B6823F422
:103A5000D0730B6021688B6823F001038B6084F8BE
:103A6000790084F87A00032084F87820BDE8F0819A
:103A70002068C06936EA000004D00020B842D9D0DE
:103A80000020F3E70120F9E7FEE700000FB4054B43
:103A900010B503A9044A029800F028F810BC5DF89C
:103AA00014FB0000714E0008E800002409070028FC
:103AB0004FEA116104DB00F1E02080F80014704748
:103AC00000F00F0000F1E02080F8141D704702E0C4
:103AD00008C8121F08C1002AFAD170477047002099
:103AE00001E001C1121F002AFBD170472DE9FF4FF1
:103AF0008BB088460546002606E025280BD0DDE978
:103B00000D1290476D1C761C28780028F5D10FB057
:103B10003046BDE8F08F0024A146A2460122AE49FE
:103B200000E0044315F8013F203B02FA03F008428D
:103B3000F7D128782A2810D06FF02F022878A0F12A
:103B40003001092915D809EB890102EB410144F044
:103B5000020400EB01096D1CF0E758F8041B5FEA52
:103B6000010903D544F40054C9F1000944F00204EA
:103B70006D1C28782E2817D115F8010F44F0040485
:103B80002A280ED06FF02F022878A0F130010929E1
:103B90000AD80AEB8A0102EB410100EB010A6D1C15
:103BA000F2E758F804AB6D1C28786C280FD006DCBF
:103BB0004C2817D068280DD06A2814D104E0742846
:103BC00010D07A280FD10DE044F400140AE044F438
:103BD000801401E044F440146978814202D104F574
:103BE00080146D1C6D1C2878692865D006DC0028BF
:103BF0008DD0632827D0642806D15DE06E2808D0D8
:103C000073282AD0752877D0DDE90D129047761CED
:103C1000E0E0C4F30250022809D003280DD0D8F800
:103C2000001004280DD00E6008F10408D2E0D8F886
:103C30000010F217C1E90062F6E7D8F800100E8014
:103C4000F2E70E70F0E718F8041B8DF80010002062
:103C50008DF80100EB46012003E058F804BB4FF05B
:103C6000FF3061074FF0000701D40AE07F1C574581
:103C70000DDA8742FADB1BF807100029F6D106E0BF
:103C80007F1C8742FCDB1BF807100029F8D1DDE917
:103C90000D23A9EB07008146214600F0B1F830441E
:103CA000C61904E0DDE90D121BF8010B90477F1ED9
:103CB000F8D22146484688E058F8040BC4F3025174
:103CC0004FF00A0B032900D100B2042900D140B201
:103CD000002802DA40422D2102E0210505D52B21E2
:103CE0008DF82410012104E006E0E10710D0202126
:103CF000F6E708AF089113E058F8040BC4F302513B
:103D00004FF00A0B032900D180B2042900D1C0B2C0
:103D10000021EEE75946FCF73DFB303107F8011D65
:103D20000028F7D1ADEB070000F1200B600702D5AA
:103D300024F4803401E04FF0010ADA4502DDAAEBF9
:103D40000B0000E00020824600EB0B0108980144C4
:103D5000A9EB01000A90E00306D4DDE90D2321461A
:103D60000A9800F04DF806444FF0000908E009A950
:103D700011F80900DDE90D12904709F10109761CDF
:103D800008998945F3DBE0030CD5DDE90D232146D5
:103D90000A9800F035F8064404E0DDE90D12302001
:103DA0009047761CBAF10001AAF1010AF5DC05E0A2
:103DB000DDE90D1217F8010B9047761CBBF10001ED
:103DC000ABF1010BF4DC0A982146DDE90D2300F08C
:103DD00005F806446D1C97E6092801002DE9F0411D
:103DE000044600251E461746880404D405E03946DB
:103DF0002020B0476D1C641EF9D52846BDE8F0812F
:103E00002DE9F041044600251E469046C80301D521
:103E1000302700E02027880404D505E041463846D5
:103E2000B0476D1C641EF9D52846BDE8F08100003E
:103E300010B504464068804720682246BDE810401F
:103E4000014903F0C3BF0000313E000870B50C46C5
:103E50000546880706D008A34FF4CE7212A11AA017
:103E6000FFF714FE28688188491E8180E868006891
:103E70002060E868046070BD2E2E2F4D6964646C6C
:103E80006577617265732F54686972645F506172FF
:103E900074792F4C7749502F7372632F636F72655B
:103EA0002F6D656D702E63006D656D705F66726558
:103EB000653A206D656D2070726F7065726C792047
:103EC000616C69676E656400417373657274696FD4
:103ED0006E2022257322206661696C6564206174FE
:103EE000206C696E6520256420696E2025730A00A8
:103EF00070B50546C0680468002C16D02168A2077A
:103F0000016006D00CA34FF4A47217A11FA0FFF705
:103F1000BDFD28688188491C89B281802868C288D3
:103F2000914200D9C180204670BD29680888401C94
:103F30000880002070BD00002E2E2F4D6964646C37
:103F40006577617265732F54686972645F5061723E
:103F500074792F4C7749502F7372632F636F72659A
:103F60002F6D656D702E63006D656D705F6D616C9A
:103F70006C6F633A206D656D702070726F70657242
:103F80006C7920616C69676E6564000041737365CC
:103F90007274696F6E2022257322206661696C65D8
:103FA00064206174206C696E6520256420696E2030
:103FB00025730A0070B50A4D0024064604EB440040
:103FC00005EBC000017D29B18068B04202D12046D6
:103FD00000F034F9641CE4B20A2CEFD370BD000089
:103FE000103900242DE9F74F84B04FF00A0B00245C
:103FF0000646DA465F46D94602940194009404EBE3
:1040000044004F490A2F039001EBC00898F8145060
:1040100016D0002D24D0012D08D0022D06D249A3A0
:1040200040F2251255A165A0FFF730FD66B1316859
:10403000D8F80400814207D160B207B0BDE8F08F24
:10404000002DE8D167B20BE0012D17D0022D07D368
:10405000B8F812000099884202D34FFA84FA00900F
:10406000641CE4B20A2CCAD3059881074FF0FF30D4
:10407000E3D40A2F18D01ADAFCB242E03048039990
:1040800050F831000028B8F8120006D00299884292
:10409000E6D34FFA84F90290E2E701998842DFD330
:1040A0004FFA84FB0190DBE70599C907C5D0BAF147
:1040B0000A0F0FDA0AF0FF04214804EB440150F81C
:1040C000310090B11FA340F26F1246A13BA0FFF751
:1040D000DDFC0AE0BBF10A0F02DA0BF0FF0404E09A
:1040E000B9F10A0FA9DA09F0FF040A2C06D315A3C7
:1040F00040F2811241A131A0FFF7C8FC204600F038
:104100009DF80A2C06D30FA340F285123BA12BA0E9
:10411000FFF7BCFC0A4804EB440100EBC105287D15
:1041200030B108A34FF4C37239A124A0FFF7AEFC4D
:104130000EB130686860002160B269827DE70000DE
:10414000103900242E2E2F4D6964646C65776172DE
:1041500065732F54686972645F50617274792F4C73
:104160007749502F7372632F636F72652F69707672
:10417000342F6574686172702E630000737461740B
:1041800065203D3D204554484152505F53544154B1
:10419000455F50454E44494E47207C7C20737461F6
:1041A0007465203E3D204554484152505F53544170
:1041B00054455F535441424C4500000041737365C0
:1041C0007274696F6E2022257322206661696C65A6
:1041D00064206174206C696E6520256420696E20FE
:1041E00025730A006172705F7461626C655B695D62
:1041F0002E71203D3D204E554C4C000069203C2046
:104200004152505F5441424C455F53495A4500006A
:104210006172705F7461626C655B695D2E7374615D
:104220007465203D3D204554484152505F535441F0
:1042300054455F454D5054590000000070B5074C7F
:1042400000EB4005002654F8350018B103F052FA8F
:1042500044F8356004EBC500067570BD10390024C4
:104260002DE9F0470D00064686B00AD074684FF479
:1042700080792B482188494513D12179062910D10D
:1042800009E028A34FF4227234A138A0FFF7FEFB07
:1042900006B0BDE8F0876179042902D16188082958
:1042A00006D0018D491C0185C18B491CC18322E0C8
:1042B000418B8046491C4183D4F80E000490686805
:1042C000A16920B1814202D101273B4601E00027CC
:1042D0000223284604F1080204A9924600F0B8FB24
:1042E000E08848450BD0B0F5007F04D0B8F82C101A
:1042F000491CA8F82C10304603F0FCF9C8E7002F41
:10430000F9D0022204AB281DCDE90232CDE9000A22
:1043100005F12D0352461946284600F093FAEAE7C4
:10432000283800242E2E2F4D6964646C65776172E5
:1043300065732F54686972645F50617274792F4C91
:104340007749502F7372632F636F72652F69707690
:10435000342F6574686172702E6300006E65746935
:104360006620213D204E554C4C0000004173736582
:104370007274696F6E2022257322206661696C65F4
:1043800064206174206C696E6520256420696E204C
:1043900025730A00FEB5040015460E4606D142A359
:1043A00040F21B324EA152A0FFF770FB36B93EA37C
:1043B0004FF4477258A14EA0FFF768FB35B93AA3F6
:1043C00040F21D3257A14AA0FFF760FB2868214642
:1043D00000F05CFF08B1574B3BE02868C0F30311C5
:1043E0000E2921D0D4E901210A400140914208D090
:1043F00080B2A0F57E41A93903D0E06898B304F1FA
:104400000C054D4B4D491A7802EB420001EBC00000
:10441000077D022F2BD32F684068874227D1484958
:10442000C88D401CC88530E001228DF80420002092
:104430008DF805005E218DF80610687801AB00F05C
:104440007F008DF80700A8788DF80800E8788DF8CF
:1044500009004FF4006004F12D023146009020461F
:1044600000F02AFCFEBDFFE76FF00300FAE7002032
:1044700000EB400201EBC202177D022F0AD32F6826
:104480005268974206D1C2B21A703146204600F0F7
:1044900059F8E7E7401C40B20A28E9DB32462946D2
:1044A000204600F0D7F8DDE72E2E2F4D6964646CAE
:1044B0006577617265732F54686972645F506172C9
:1044C00074792F4C7749502F7372632F636F726525
:1044D0002F697076342F6574686172702E630000E6
:1044E0006E6574696620213D204E554C4C000000DD
:1044F000417373657274696F6E2022257322206682
:1045000061696C6564206174206C696E6520256446
:1045100020696E2025730A007120213D204E554CE4
:104520004C00000069706164647220213D204E558A
:104530004C4C00000AB70008DC00002410390024AD
:10454000283800242DE9F8431546884606461C48BD
:1045500002EB450100EBC104207D022806D219A31D
:104560004FF43B7225A131A0FFF790FA144A05EBF6
:104570004501207D02EBC1050C35022813D1608A6C
:104580000327B0F58E7F04D9211D304600F01AFABA
:1045900007E0B0F5877F06D3211D2A46304600F09C
:1045A00017FA00B927754FF4006006F12D022B466B
:1045B00041460090304600F07FFBBDE8F8830000E4
:1045C000103900242E2E2F4D6964646C657761725A
:1045D00065732F54686972645F50617274792F4CEF
:1045E0007749502F7372632F636F72652F697076EE
:1045F000342F6574686172702E6300006172705FA1
:104600007461626C655B6172705F6964785D2E7362
:1046100074617465203E3D204554484152505F53BB
:10462000544154455F535441424C450041737365B6
:104630007274696F6E2022257322206661696C6531
:1046400064206174206C696E6520256420696E2089
:1046500025730A002DE9FC5F824614462D30019037
:10466000086888464FF0FF364FF0000B514600F0C7
:104670000DFEC0B9D8F80000C0F303110E2912D006
:10468000B8F1000F0FD070B1012152464046FFF73C
:10469000A9FC07000AD51CB13E49888C401C8884BF
:1046A0003846BDE8FC9F6FF00F00FAE73A4907EB88
:1046B000470901EBC905287D00280ED0012808D044
:1046C000022806D235A340F2C73242A14BA0FFF721
:1046D000DDF9BBF1000F06D104E0C5F808A0012107
:1046E000297500E034B94146504600F06BF9002CC2
:1046F0000646D6D0287DDFF8A08002280DD3494891
:104700004FF4006105F10C0307705046019A0091C7
:10471000214600F0D1FA064639E0012837D14FF49E
:104720007B76254668892989884207D1286828B17F
:104730001AA332463CA131A0FFF7A8F9287B012833
:104740000ED029890022022002F080FB050018D03B
:10475000214602F04BFE58B1284602F0CBFF10E094
:104760002D68002DDED12546204603F0FBF945B12A
:1047700058F8390008B102F0BDFF002648F839505A
:1047800005E004494FF0FF36888C401C8884304691
:1047900087E7000028380024103900242E2E2F4DE2
:1047A0006964646C6577617265732F5468697264BB
:1047B0005F50617274792F4C7749502F7372632F59
:1047C000636F72652F697076342F657468617270DB
:1047D0002E6300006172705F7461626C655B695D7D
:1047E0002E7374617465203D3D2050454E44494E02
:1047F00047206F7220535441424C4500417373650A
:104800007274696F6E2022257322206661696C655F
:1048100064206174206C696E6520256420696E20B7
:1048200025730A00DC0000246E6F207061636B65E5
:10483000742071756575657320616C6C6F77656444
:10484000210000002DE9FF4F81B0984607004FF08E
:104850000009DDE90FAB06D12FA34FF48B623CA119
:104860003FA0FFF713F900221C21022002F0EEFA0C
:10487000454E050049D068891C2806D226A340F27F
:10488000634242A136A0FFF701F96C68119801F06C
:1048900087FDE08097F82C00062806D048491EA323
:1048A0002FA040F26A42FFF7F1F8D8F80010062373
:1048B000A1604FF48071B8F80400A081DAF80020FC
:1048C000C4F812200822BAF80400E0820E980068AA
:1048D000C4F80E00DBF80000A0610420218040F63F
:1048E00006016280237160713846DDE90223009180
:1048F000294600F0E1F9308B401C3083284602F055
:10490000F9FE484605B0BDE8F08FB08C401CB0847D
:104910004FF0FF30F6E700002E2E2F4D6964646CD7
:104920006577617265732F54686972645F50617254
:1049300074792F4C7749502F7372632F636F7265B0
:104940002F697076342F6574686172702E63000071
:104950006E6574696620213D204E554C4C00000068
:10496000417373657274696F6E202225732220660D
:1049700061696C6564206174206C696E65202564D2
:1049800020696E2025730A00283800246368656357
:104990006B2074686174206669727374207062752C
:1049A000662063616E20686F6C6420737472756337
:1049B00074206574686172705F6864720000000042
:1049C00050B90008014A00F003B800000AB7000817
:1049D0007FB5064D0124031DCDE90214CDE9003554
:1049E00029331946FFF72EFF04B070BD10B7000839
:1049F00070B5164D5FF0000404EB440005EBC001F8
:104A0000087DF0B14A8A521C92B24A82B2F5967F72
:104A10000AD2012806D003280AD004280AD0012887
:104A20000BD00EE0052A08D32046FFF707FC08E06C
:104A3000042000E00220087503E08868091DFFF7E4
:104A4000C1FF641CE4B20A2CD6D370BD1039002417
:104A5000F8B5044690F82C001F46154606280E4669
:104A600006D020A340F2AB122CA135A0FFF70EF820
:104A70009EB3306888B3214600F008FC68BB3078EC
:104A8000C0F303100E2829D0224639463046FFF7DE
:104A9000A9FA002820DB344A00EB4001022302EB94
:104AA000C1000375002384602E68C660AE8806824C
:104AB000438252F8316076B142F831304FF40060F1
:104AC0002B4604F12D0231460090204600F0F4F808
:104AD000304602F00FFE0020F8BDFFE76FF00F0038
:104AE000FAE700002E2E2F4D6964646C65776172C1
:104AF00065732F54686972645F50617274792F4CCA
:104B00007749502F7372632F636F72652F697076C8
:104B1000342F6574686172702E6300006E6574696D
:104B2000662D3E6877616464725F6C656E203D3D02
:104B3000204554485F4857414444525F4C454E001D
:104B4000417373657274696F6E202225732220662B
:104B500061696C6564206174206C696E65202564F0
:104B600020696E2025730A00103900242DE9F041D8
:104B7000054640892A4C0E460E2803D8208D401C3D
:104B800020852EE0686801788789CA0714D001293A
:104B900005D024490622FBF7F0FB48B10CE0417830
:104BA00051B980785E2807D1687B40F0100002E0A0
:104BB000687B40F008006873082F6FF00D0114D077
:104BC000B7F5C16FDAD196F83300000718D56889B8
:104BD0000E2803DB284602F061FED0B1608C401C39
:104BE0006084E08B401CE0830AE096F83300000705
:104BF00006D568890E2803DB284602F04FFE18B15F
:104C0000284602F077FD08E03146284600F086FC91
:104C100003E031462846FFF723FB0020BDE8F08182
:104C2000283800240AB7000870B500250646204839
:104C30009AB02C46FEF72DF896F8331049070DD59B
:104C4000012809D81A48EC38FCF744FB304602F03A
:104C500075F8304602F0B8F81AB070BD0128FBD9DB
:104C600002284FF400514FF4804206D0032805D0AB
:104C7000042805D00528EFD103E00C46154600E0D6
:104C80000C460B486946EC38FBF749FF0848694673
:104C9000CDE90554EC38FCF797FA0548EC38FCF7F9
:104CA000DBFA304602F0B9F8304602F09AF8D3E762
:104CB00010020024704700002DE9F0411F46904685
:104CC0000E460446069801F06BFB0E210546304661
:104CD00002F0E4FD38B113494889401C48816FF067
:104CE0000100BDE8F0817068858139680160B9888C
:104CF0008180D8F80020C0F80620B8F8041041815F
:104D000094F82C00062806D007A340F22B1214A119
:104D100020A0FEF7BBFEA26931462046BDE8F04167
:104D200010470000283800242E2E2F4D6964646C33
:104D30006577617265732F54686972645F50617240
:104D400074792F4C7749502F7372632F6E65746995
:104D5000662F65746865726E65742E6300000000CE
:104D60006E657469662D3E6877616464725F6C6518
:104D70006E206D757374206265203620666F722018
:104D800065746865726E65745F6F75747075742193
:104D900000000000417373657274696F6E202225F4
:104DA0007322206661696C6564206174206C696E91
:104DB0006520256420696E2025730A0010B5040063
:104DC00006D10BA340F215220EA112A0FEF75EFE43
:104DD0001A49732061611A49A161742184F8340071
:104DE000204684F8351001F0E3F9002010BD0000E2
:104DF0002E2E2F5372632F65746865726E65746909
:104E0000662E63006E6574696620213D204E554C08
:104E10004C000000417373657274696F6E20222527
:104E20007322206661696C6564206174206C696E10
:104E30006520256420696E2025730A0095430008CB
:104E40003963000870B5054601F044FA04000BD040
:104E50002A692946904710B1204602F04BFCBDE874
:104E600070400248FBF703BE70BD0000240100241F
:104E700004490A685206FCD5024AC1B20C321180BC
:104E8000704700001C4800400A46032100F022B988
:104E90002DE9FE4F5A4C8B465A490646B4F862003B
:104EA000401CA4F86200D1F8088098F800000007C0
:104EB000850E142D74D370890428FBD37068007894
:104EC00058B108280ED0B4F87000401CA4F8700047
:104ED000B4F86600401CA4F866003046BDE8FE4FFA
:104EE00002F008BC4869DFF81C91C0F303120E2AD7
:104EF00009F114094AD08A46096800F0C7F9002868
:104F000044D13089082871D305F10E0130460F468F
:104F100002F0C4FC00282DD030890022284481B240
:104F2000022001F093FF070030D0798905F10800D5
:104F3000814216D378682A464146FBF7FAF969425E
:104F4000384602F0ABFC002806D0AF222EA33CA1CD
:104F500049A0FEF79BFD04E03146384602F046FAD0
:104F600018B1384602F0C6FB10E0304602F0C2FB32
:104F70003E4616E07942304602F090FC002810D000
:104F8000C02221A346A13CA0FEF780FD304602F0DE
:104F9000B1FBB4F87400401CA4F87400BDE8FE8FA7
:104FA00024E077682946304602F078FC002894D146
:104FB00070680021D9F80020FF25C2600022DAF8CD
:104FC0001030036101233970798005724181B4F892
:104FD0006000401CA4F86000CDE900132B46494650
:104FE0003046CDF808B000F09BFB76E7304602F083
:104FF00081FBB4F86A00401CA4F86A00CEE7000008
:1050000028380024B00200242E2E2F4D6964646CD1
:105010006577617265732F54686972645F5061725D
:1050200074792F4C7749502F7372632F636F7265B9
:105030002F697076342F69636D702E630000000055
:1050400069636D705F696E7075743A206D6F766913
:105050006E6720722D3E7061796C6F616420746F91
:105060002069636D7020686561646572206661699E
:105070006C65640A00000000417373657274696FA7
:105080006E2022257322206661696C65642061743C
:10509000206C696E6520256420696E2025730A00E6
:1050A00069636D705F696E7075743A2072657374B0
:1050B0006F72696E67206F726967696E616C2070CC
:1050C0002D3E7061796C6F6164206661696C656406
:1050D0000A0000002DE9FF47924689460022064655
:1050E0002421012001F0B2FE050036D06889242871
:1050F00006D21BA340F2611227A132A0FEF7C6FC24
:105100006C684FF0000877681C2284F8009084F8DF
:1051100001A0A4F80480A4F80680686871680830CB
:10512000FBF707F9F868039003A800F0C5FC88B105
:105130002E4A0126A4F802800021B2F860305B1CE0
:10514000A2F86030FF230290CDE9008603AA28462A
:1051500000F0E6FA284602F0CDFABDE8FF8700002D
:105160002E2E2F4D6964646C6577617265732F54C0
:10517000686972645F50617274792F4C7749502F5F
:105180007372632F636F72652F697076342F696352
:105190006D702E6300000000636865636B207468A7
:1051A0006174206669727374207062756620636131
:1051B0006E20686F6C642069636D70206D65737319
:1051C00061676500417373657274696F6E20222593
:1051D0007322206661696C6564206174206C696E5D
:1051E0006520256420696E2025730A002838002474
:1051F0000A460B21FFF76EBF30B41B68029D9CB2BC
:1052000004EB13442B6814FA83F404EB13431C0CD3
:1052100014FA83F31C0C14FA83F330BCAFF3008050
:105220002DE9F04100261C4690460F46054613E046
:105230006989686801F0C8F82044A97A020C12FA5A
:1052400080F4C90707D0E0B2C6F10101C4F3072218
:1052500042EA0024CEB22D68002DE9D126B1E0B299
:10526000C4F3072141EA0024384601F099F80444C8
:10527000404601F095F82044010C11FA80F0010C31
:1052800011FA80F0C04380B2BDE8F081421C12D018
:1052900088B191F8332092070BD54A68824208D032
:1052A00089680A4000EA0103934202D10143491C84
:1052B00001D0002070470120704700002DE9F74F12
:1052C00086B004460025AE1F07981427408D143879
:1052D000C11700EB5170C0F3CF0B606805900178E7
:1052E00001F00F01052904D058A340F2E12266A184
:1052F0000BE0C08801F054F88104C0F30C00029068
:105300000AD552A340F2E62269A170A0FEF7BEFBC7
:10531000304609B0BDE8F08F208914381FFA80F8B4
:1053200085E000BFB8EBCB0F01D34FEACB0080B2D2
:10533000039000221421022001F088FD5FEA000A98
:105340007DD06089142806D240A34FF4427269A12F
:105350005EA0FEF79BFBDAF8040014220599FAF729
:10536000E8FFDAF80400039E04902BE06089C01B7C
:1053700085B2AE4200D2354615B3052001F0E2FBFE
:105380005FEA000958D0606802224B46294638443B
:10539000CDE90005042001F017FF0090E8B3204696
:1053A00002F0E0FB5B495046C9E90414009901F0A2
:1053B0007BFF701B0604360C06D024680027D5E757
:1053C00024680027002ED1D1079879198FB2408D1B
:1053D000143840450298C0F30C0001DA40F4005044
:1053E00000F0DEFF01460498C1800398143080B2BB
:1053F00000F0D6FF0499002248805146049842816B
:105400000798089A436998474348018E491C0186CA
:10541000504602F06FF9039901E013E00FE0A8EBAA
:10542000010202991FFA82F8594488B20290B8F139
:1054300000007FF477AF6CE7504602F05BF94FF065
:10544000FF3066E7484600F073FBF5E72E2E2F4D40
:105450006964646C6577617265732F5468697264FE
:105460005F50617274792F4C7749502F7372632F9C
:10547000636F72652F697076342F6970345F66725E
:1054800061672E63000000006970345F66726167B7
:10549000282920646F6573206E6F74207375707097
:1054A0006F7274204950206F7074696F6E730000C2
:1054B00069705F6672616728293A204D4620616CE9
:1054C00072656164792073657400000041737365CF
:1054D0007274696F6E2022257322206661696C6583
:1054E00064206174206C696E6520256420696E20DB
:1054F00025730A0074686973206E656564732061A2
:10550000207062756620696E206F6E652070696517
:105510006365210019610008283800242DE9F05F37
:10552000DFF8F0910F4606460422B9F84A10491CEC
:10553000A9F84A1045682878B2EB101F09D0304608
:1055400002F0D8F8B9F85C104846491CA9F85C107C
:1055500022E000F00F004FF6FF7101EA8008688832
:1055600000F01EFF04463089A04203D92146304690
:1055700002F02CFA7189414505D33089A04202D34B
:10558000B8F1140F0ED2304602F0B4F8B9F8521048
:105590004846491CA9F85210B0F84E10491CA9F809
:1055A0004E107CE0DFF870B12969CBF81410C1F31C
:1055B0000312E9680E2ACBF8101012D03C464FF0C7
:1055C000010A00BF94F83300C00712D0616881B1AE
:1055D000DBF81400884220D02146FFF757FEE0B9DF
:1055E00007E097F83300C0070FD0786868B13C46F1
:1055F00013E0BAF1000F0AD09BF814007F2804D002
:1056000046484FF0000A046802E0002405E02468E0
:10561000BC4200D12468002CD4D1DBF810003946FC
:10562000FFF734FE70BB9BF81000DA46C0F303109E
:105630000E2827D05CB3E88830F0C00005D0304693
:1056400000F042F906002AD07568C8F10001CAF8D6
:1056500008503046CAE900472A781207920EAAF885
:105660000C2002F01BF9687A012825D006281ED0EC
:10567000112817D0DAF8140057462146FFF706FE26
:10568000F8B12CE0304602F035F8484684E7B9F826
:105690004E103046491CA9F84E1002F02BF800209D
:1056A000BDE8F09F3946304605F012FF24E0394648
:1056B000304603F0E5F81FE039463046FFF7E8FBD7
:1056C0001AE0387DC0F303100E2808D0414630465A
:1056D00002F0E7F8022130467560FFF7D5FB30464F
:1056E00002F008F8B9F85810491CA9F85810B9F890
:1056F0004E10491CA9F84E100021CAF80010CAF833
:105700000410CAF80810AAF80C10CAF81010CAF849
:105710001410C4E728380024B002002478000024C4
:10572000FEB5DDE90954089E1AB109B10F6807B941
:10573000211D0096CDE9015400F002F8FEBD0000E5
:105740002DE9F84FDDE90BA80546C0891F4616462E
:105750000128894606D033A340F233323EA141A04E
:10576000FEF794F9DFF824B1002E3ED0142128462C
:1057700002F094F840B1BBF85C106FF00100491CD6
:10578000ABF85C10BDE8F88F68896C68142806D205
:1057900024A34FF458723EA132A0FEF777F9277286
:1057A000452084F809A03168216120700A98607052
:1057B000288900F0F5FD424F4FF0000A6080A4F800
:1057C00006A0388800F0ECFDA080B9F1000F388801
:1057D00000F10100388005D0D9F80000E060A4F89D
:1057E0000AA006E037480068F8E768686E46006976
:1057F0000090BBF84810491CABF84810B8F82A00D4
:1058000040B12989814205D9324641462846FFF7F1
:1058100055FDB7E7D8F81430404632462946984738
:10582000B0E700002E2E2F4D6964646C65776172BD
:1058300065732F54686972645F50617274792F4C7C
:105840007749502F7372632F636F72652F6970767B
:10585000342F6970342E6300702D3E726566203DD2
:105860003D203100417373657274696F6E2022258B
:105870007322206661696C6564206174206C696EB6
:105880006520256420696E2025730A0028380024CD
:10589000636865636B2074686174206669727374F1
:1058A00020706275662063616E20686F6C6420737F
:1058B00074727563742069705F6864720000000020
:1058C000DE00002438B800082DE9F14FDFF8E08150
:1058D000B8F83210491CA8F83210009845682878AA
:1058E00000F00F00052805D0B8F84410491CA8F8AE
:1058F0004410D4E0E88800F053FDC004070C688829
:1059000000F04EFD297801F00F01494200EB8100C3
:105910001FFA80F9009801F05FFD664C064620886A
:1059200030440A2808D93146284600F09FFBE8B3E6
:10593000208830440A283DD8A24664684FF0000B06
:1059400019E06069E968884214D1A0692969884230
:1059500010D1A089A98888420CD1B8F8461001F16D
:105960000101A8F8461044B1E88800F019FDC00410
:1059700026D030E02468002CE3D1042001F0E2F8C6
:1059800004000AD13146284600F070FBB04211DB1A
:10599000042001F0D7F804000CD02021FAF7E2FC33
:1059A0000321E177DAF80410216000E002E0CAF890
:1059B00004400AE0B8F83C10491CA8F83C106EE01E
:1059C000E08900F0EDFCC00405D01422294604F162
:1059D0000800FAF7AEFCA87940F340156D1C08D01A
:1059E00007EB090080B2B84259D34FF6EB718842F9
:1059F00055D800992A46204600F0E2F8411C4ED0C6
:105A0000BAF800203244AAF8002035B1A27F07EB93
:105A10000901A18342F00102A27701283DD1A08BA8
:105A2000142204F108011430A083606845682846F8
:105A30002E68FAF77EFCA08B00F0B2FC014669806C
:105A4000A5F806B06FF01308A5F80AB0656809E07C
:105A500077684146304601F021FF3146284601F083
:105A600023FC3E68002EF3D1DAF8041056468C422F
:105A700005D1002105E00868A04202D001460029B6
:105A8000F9D1204600F0CCF9284601F0A5FC318878
:105A9000081A30802846BDE8F88F0020FBE7B8F8E8
:105AA0003610491CA8F83610009801F023FEF4E7E0
:105AB00028380024E000002470B50246164813E0A0
:105AC00090F83310CB070FD04B070DD545685DB16B
:105AD000836814681D4004EA0306AE421AD08907A1
