:020000040800F2
:10000000087A0024AD0200089D3E000891380008DF
:10001000993E000825040008814F000800000000F8
:1000200000000000000000000000000095420008F1
:1000300029040008000000009F3E000897420008C5
:10004000C7020008C7020008C7020008C70200086C
:10005000C7020008C7020008C7020008C70200085C
:10006000C7020008C7020008C7020008C70200084C
:10007000C7020008C7020008C7020008C70200083C
:10008000C7020008C7020008C7020008C70200082C
:10009000C7020008C7020008C7020008C70200081C
:1000A000C7020008C7020008C7020008C70200080C
:1000B000C7020008C7020008C7020008C7020008FC
:1000C000C7020008C7020008C7020008C7020008EC
:1000D000C7020008C7020008C7020008C7020008DC
:1000E000C7020008C702000800000000C70200089D
:1000F000C7020008C7020008C7020008C7020008BC
:10010000C7020008C7020008C7020008C7020008AB
:10011000C7020008C7020008C7020008C70200089B
:10012000C7020008C7020008C7020008C70200088B
:10013000C7020008C7020008C7020008C70200087B
:1001400000000000000000000000000000000000AF
:10015000C7020008C7020008C7020008C70200085B
:10016000C7020008C7020008C7020008C70200084B
:10017000C7020008C7020008C7020008000000000C
:10018000C7020008C7020008C7020008C70200082B
:10019000C7020008C7020008C7020008C70200081B
:1001A000C7020008C7020008C7020008C70200080B
:1001B000C7020008C7020008C7020008C7020008FB
:1001C000C7020008C7020008C7020008C7020008EB
:1001D000C7020008C7020008C7020008C7020008DB
:1001E000C7020008C7020008C7020008C7020008CB
:1001F000C7020008C7020008C7020008C7020008BB
:10020000C7020008C7020008C7020008C7020008AA
:10021000C7020008C7020008C7020008C70200089A
:10022000C7020008C7020008C7020008000000005B
:10023000C7020008C702000800000000C70200084B
:10024000C7020008C7020008C7020008C70200086A
:10025000C7020008C7020008C7020008C70200085A
:10026000C7020008C7020008C7020008C70200084A
:10027000C7020008C7020008C7020008000000000B
:10028000C702000800000000C702000800000000CC
:1002900000000000C7020008DFF80CD000F0B0F842
:1002A000004800477D820008087A002406488047FD
:1002B00006480047FEE7FEE7FEE7FEE7FEE7FEE74B
:1002C000FEE7FEE7FEE7FEE77D430008990200082F
:1002D0002DE9F05F0546002092469B46884606467B
:1002E000814640241BE0284641464746224600F00E
:1002F00076F853465A46C01A914110D31146184613
:10030000224600F05DF82D1A67EB01084F462246A1
:100310000120002100F054F817EB00094E41201E87
:10032000A4F10104DFDC484631462A464346BDE8D5
:10033000F09F40EA01039B0703D009E008C9121FA0
:1003400008C0042AFAD203E011F8013B00F8013B8F
:10035000521EF9D27047D2B201E000F8012B491EBB
:10036000FBD270470022F6E710B513460A46044652
:100370001946FFF7F0FF204610BD30B504460020B7
:10038000034600E05B1C934203D2E05CCD5C401B63
:10039000F8D030BD30B50B460146002020220124A4
:1003A00009E021FA02F59D4205D303FA02F5491B43
:1003B00004FA02F52844151EA2F10102F1DC30BD59
:1003C000202A04DB203A00FA02F100207047914015
:1003D000C2F1200320FA03F3194390407047202A0A
:1003E00004DB203A21FA02F00021704721FA02F3DF
:1003F000D040C2F1200291400843194670470000E6
:10040000064C074D06E0E06840F0010394E8070061
:1004100098471034AC42F6D3FFF742FF40FC000887
:1004200060FC000800BFFEE7704710B5002210E036
:1004300002EB4204036903EBC40100230B604B6031
:100440008B60CB600B614B6100F12C0343F82210F1
:10045000521C042AECD30024C46304644464C464BE
:1004600084640324036803F58053C3F830410368B0
:1004700003F580530469C3F81C41036948330468D9
:1004800004F58054C4F8283110BD10B500220EE0E8
:1004900002EB4204C36803EBC40100230B604B6012
:1004A0008B60CB6000F1180343F82210521C042A21
:1004B000EED3002484620324036803F58053C3F859
:1004C0002C41036803F58053C468C3F814410368E2
:1004D00003F58053C468C3F8204110BD10B5A2B025
:1004E000044601208DF83300002012908DF8410061
:1004F0008DF8430001208DF828008DF856008DF806
:10050000320000208DF84C0001208DF8840040035B
:100510000F9000208DF85C0018908DF885008DF804
:1005200086004FF4C360169000208DF830000B90C9
:1005300001208DF8350000208DF836008DF8400040
:100540001D901B9014908DF864008DF87A000120A6
:100550008DF842002020209001208DF844000020DA
:100560008DF855004FF0405009904FF480400E90A8
:1005700000208DF8310002201F9000208DF87800B7
:100580008DF879008DF8540001208DF8340000209A
:100590001A9001208DF8700009A9204600F08AFA0F
:1005A00001208DF804000290002000908DF81C00BE
:1005B0008DF80D008DF80C004FF40010069000200F
:1005C0008DF814004FF40010049000208DF81D00E9
:1005D0004FF4067008906946204600F00DFA22B0EC
:1005E00010BD000070B506463068D0F8004224F413
:1005F000706402F0E5FB05461348854205D31348B5
:10060000854202D244F400741AE01048854205D3B2
:100610000F48854202D244F4407411E00C488542F0
:1006200003D30C48854200D20AE00A48854205D32C
:100630000948854202D244F4807401E044F48064A5
:100640003068C0F8004270BD002D3101C00E1602A6
:100650000087930300E1F50580D1F0080020704782
:1006600010B501F07DF910BD10B5024800F0D8FEBC
:10067000002010BD2801002470B504460D46164622
:1006800033462A462146044800F07CFE10B14FF064
:10069000FF3070BD0020FCE72801002470B504463F
:1006A0000D46164633462A462146044800F0ECFF24
:1006B00010B14FF0FF3070BD0020FCE7280100248E
:1006C0002DE9F04706460B46914606F118052A69C2
:1006D000D5F810C0002755F822109C68C86800F0B3
:1006E0000040B0F1004F02D10220BDE8F087187839
:1006F00000F00400C8B3C8686FF30F00D3F824A05B
:1007000040EA0A00C860C86840F48030C8603068B9
:10071000006E40F48010D6F800A0CAF86000187887
:1007200000F0080008B3B3F82CA088686AF31F40F3
:100730008860C86840F40030C860C86820F4402071
:10074000D3F830A040EA0A00C8603068406E40F438
:100750008010D6F800A0CAF864003068006D40F040
:100760008060D6F800A0CAF85000187800F0100099
:1007700058B188686FF30D00D3F818A040EA0A005A
:100780008860C86840F08060C860187800F0040095
:1007900018B9187800F01000F0B1C86840F0804037
:1007A000C860C86840F00040C86000BF521C042AFE
:1007B00000D3121F00BF55F822107F1CC86800F03C
:1007C0000040B0F1004F07D155F82C10C86820F058
:1007D0000040C860022088E77F1C206808608868A5
:1007E0006FF30D00D4F804A040EA0A008860A06806
:1007F00068B1A468206848608868DFF8F8A100EA5A
:100800000A00B4F804A040EA0A40886007E000202B
:1008100048608868DFF8DCA100EA0A008860187880
:1008200000F01000A0B1C86820F4F000B3F820A0D8
:1008300040EACA40C860C8686FF31100D3F81CA032
:1008400040EA0A00C860C86840F48020C8601FE021
:10085000C8686FF30E00D3F804A040EA0A00C8602D
:10086000187800F0010038B1C86820F44030D3F89F
:1008700014A040EA0A00C860187800F0200038B1DF
:10088000C86820F04060D3F810A040EA0A00C860B1
:10089000187800F0040038B1886820F44040D3F89C
:1008A00028A040EA0A008860C86840F00050C8608C
:1008B000C86820F08040C860C86840F00040C86048
:1008C000187800F0020038B1C86820F06070D3F8E2
:1008D0000CA040EA0A00C86076E000BF521C042A5F
:1008E00000D3121F00BF55F82210C86800F0004066
:1008F000B0F1004F17D1624655F822104FF00008B2
:100900000DE0C86820F00040C86000BF521C042AF7
:1009100000D3121F00BF55F8221008F10108B84596
:10092000EFD30220E1E67F1CA46820680860886895
:100930006FF30D00D4F804A040EA0A008860A068B4
:1009400068B1A468206848608868DFF8A8A000EA59
:100950000A00B4F804A040EA0A40886007E00020DA
:1009600048608868DFF88CA000EA0A008860187880
:1009700000F0100060B1C8686FF31100D3F81CA03C
:1009800040EA0A00C860C86840F48020C86013E0EC
:10099000C8686FF30E00D3F804A040EA0A00C860EC
:1009A000187800F0010038B1C86820F44030D3F85E
:1009B00014A040EA0A00C860C86840F00040C8605F
:1009C000C86820F08040C860A068002885D1B9F1CF
:1009D000000F04D0886840F00040886003E0886819
:1009E00020F000408860C86840F08050C8602A61EC
:1009F00000207AE6FFFF00C010B5036803F58053BE
:100A00001B6847F60204A3430C682343046804F5FB
:100A1000805423600C798B6843EA04330C7B43EAEF
:100A2000C432036803F580535B684DF20104A343AD
:100A30001343046804F5805463604C7B0B6A43EAFB
:100A40000442036803F58053D3F80031164C234069
:100A50001343046804F58054C4F800310C7D0B691D
:100A600043EA04134C7F43EA0432036803F58053DE
:100A7000D3F804310D4C23401343046804F580542B
:100A8000C4F804310C7F8B6943EAC472036803F530
:100A90008053D3F80831064C23401343046804F50F
:100AA0008054C4F8083110BD00C0FEFFEFEFC0FF56
:100AB000FFFFC07F10B50C688B6823430C7943EAB5
:100AC000C4630C7B43EAC4534C7B43EA84538C7B62
:100AD00043EA4453CC7B43EA04530C7C0CB9012415
:100AE00000E0002443EAC4434C7C0CB9012400E03C
:100AF000002443EA44438C7C43EA04434C69234387
:100B00008C6923430C7F43EA04334C7F43EAC423BC
:100B10008C7F0CB9012400E0002443EA8423CC7FBD
:100B200043EA442391F820400CB9012400E000245A
:100B300043EA042351F8244F23430C7943EA041376
:100B40008C6843EA040203681B683D4C234013434E
:100B5000046823600B7E5B060C7D43EA04630C7B18
:100B600043EA84434C7B43EA44438C7B24390CB9ED
:100B7000012400E0002443EA04434C6B43EA0402EE
:100B800003685B682F4C234013430468636091F84B
:100B900040404B6C43EA04220368DB6840F20F14C8
:100BA000A34313430468E36091F854400B6D43EA98
:100BB000440391F84C400CB9012400E0002443EABE
:100BC000C41331F8484F43EA044203681B6F4FF6E1
:100BD0000D7423401343046823678B7B4C7B43EAEB
:100BE00044020368D3F8903023F0030313430468EE
:100BF000C4F890300368D3F8003D23F072030C6909
:100C000023430468C4F8003D0C7E4B6948390CB995
:100C1000012400E0002443EA841391F8614043EA90
:100C2000041391F8624043EAC4020368D3F8303DEC
:100C300023F07B0313430468C4F8303D10BD00006B
:100C4000838004000080F8C07047000010B504469F
:100C500000F086FE06490968401A642806D300F0B1
:100C60007FFE03490860204605F04AFC10BD0000E5
:100C70000000002470B5054605F12C02536952F8B6
:100C800023109669906908B9012070BDD06900B140
:100C9000761C002423E0086908604FF08070C8606B
:100CA000486928B148698860C86840F00070C86029
:100CB000C86840F00040C860106A18B1C86840F0C9
:100CC0008040C8609069401EA04207D900BF5B1CED
:100CD000042B00D31B1F00BF52F82310641CB44226
:100CE000D9D3286800F58050C0F828110020906101
:100CF00000BFCAE730B504460D4604F12C0050F899
:100D000025100AB1042D02D30120606530BD0A60B0
:100D10000A61C86840F08070C8602BB18B604B617D
:100D2000C86840F00070C860C86840F00040C86003
:100D30000020EBE7024609B90120704710680068FF
:100D400000F00C00C86210680068C0F3001081F861
:100D500028001068006800F06000486210680068B1
:100D6000C0F3002080F0010081F8200010680068C6
:100D7000C0F34020C87710680068C0F3802080F07E
:100D80000100887710680068C0F3C02048771068B9
:100D90000068C0F3003008771068006800F4005065
:100DA00088611068006800F480404861106800683D
:100DB000C0F30040887410680068C0F3404080F0C1
:100DC0000100487410680068C0F3C04080F0010062
:100DD000087410680068C0F30050C8731068006899
:100DE000C0F34050887310680068C0F380504873A7
:100DF00010680068C0F3C05008731068006800F005
:100E0000E060886010680068C0F3C0600871106816
:100E1000006800F0E040086010684068C0F30D0012
:100E2000486310684068C0F3004080F0010081F81A
:100E3000320010684068C0F3404081F8310010680B
:100E40004068C0F3804081F8300010684068C0F30B
:100E5000006081F8380010684068C0F34460C863DF
:100E60001068C068C0F3002081F840001068C068B6
:100E700000F00F0048641068006FC0F3400081F874
:100E800054001068006FC0F3C01080F0010081F8BA
:100E90004C001068006F00F0700008651068006F6B
:100EA000000C88641068D0F8900000F0010081F810
:100EB00056001068D0F89000C0F3400081F855004B
:100EC0001068D0F8000D00F0720088651068D0F846
:100ED000300D00F02300C8651068D0F8300DC0F365
:100EE000C00081F862001068D0F8300DC0F3001027
:100EF00081F861001068D0F8300DC0F3801080F0E8
:100F0000010081F86000002017E72DE9F84F064640
:100F10008B4606F12C07D7F814800020009057F874
:100F200028505C46B86930B9304600F027F910B94E
:100F30000120BDE8F88F4FF0000A27E0686978B11A
:100F40000CB90120F5E72869206070696060A46829
:100F50000CB90120EDE7686920607069606003E00A
:100F60002869206070696060E868C0F30E00009036
:100F700000BF08F10108B8F1040F01D3A8F104087B
:100F800000BF57F82850A4680AF1010AB869401E4A
:100F90005045D3D80CB90120CBE7E868C0F30E0167
:100FA0000098A1EB00097069484504D328692060C6
:100FB000C4F8049012E0686970B128692060706913
:100FC0006060A4680CB90120B3E7686920607069AB
:100FD000A9EB0000606001E00120AAE70020A8E77B
:100FE0002DE9F04180460E4608F12C046569A069A0
:100FF00030B9404600F0C2F810B90120BDE8F081D8
:1010000000BFA069401E0544042D00D32D1F00BF62
:1010100054F82570F868C0F30E0030600020EDE74A
:1010200038B504460CB9012038BD94F8510010B908
:10103000204600F023F9232084F8510000BF4D48DA
:10104000006840F002004B4908600846006800F064
:101050000200009000BF00BF207A18B9002002F003
:1010600077FB03E04FF4000002F072FB206800F50C
:101070008050006840F00101206800F58050016058
:1010800000F06EFC05460CE000F06AFC401BB0F579
:10109000FA7F06D904206065E02084F85100012021
:1010A000C2E7206800F58050006800F001000028C9
:1010B000EAD12046FFF796FA01F082FE2E49B0FBF6
:1010C000F1F0401E2168C1F8DC002046FFF706FA67
:1010D000206800F58050D0F8000120F4E01040F4C2
:1010E0000021206800F58050C0F80011207D00F03C
:1010F000030030B101206065E02084F85100012038
:1011000092E7206800F58050D0F8080147F6FE719C
:101110008843616940EA4101206800F58050C0F8C9
:1011200008112046FFF7B1F92046FFF77EF9606805
:1011300000796168497940EA01202168C1F800031B
:101140006068C07800066168897840EA014061689B
:10115000497840EA01206168097808432168C1F8AC
:10116000040300206065102084F8510084F85200C8
:10117000002059E7F444025840420F00F0B50746FA
:1011800007F12C03196953F82120002500240026BB
:10119000986908B10020F0BD3DE06D1CD06800F0FA
:1011A000805000B3641C012C00D10E4600BF491CC6
:1011B000042900D3091F00BF53F82120D06800F094
:1011C000004058B9D06800F0804038B10120D861A3
:1011D00000BF491C042900D3091F00BF19615E61CB
:1011E0009C610120D7E7D06800F0005050B10E4656
:1011F000012400BF491C042900D3091F00BF53F874
:10120000212008E0641C00BF491C042900D3091FE9
:1012100000BF53F82120D06800F0004008B9042D29
:10122000BBD334B3314653F8212000251FE01069A9
:1012300010604FF08070D060506928B150699060A4
:10124000D06840F00070D060D06840F00040D060BE
:10125000186A18B1D06840F08040D06000BF491CC7
:10126000042900D3091F00BF53F821206D1CA5429B
:10127000DDD30020986100BF8DE7000010B586B077
:1012800004463A49206888426DD100BF384800685A
:1012900040F40040364908600846006800F4004009
:1012A000009000BF00BF00BF0846006840F48030D7
:1012B00008600846006800F48030009000BF00BF5E
:1012C00000BF0846006840F4003008600846006827
:1012D00000F40030009000BF00BF02200190029097
:1012E0000020039004900B20059001A9214800F0F4
:1012F0000BFA862001900220029000200390022029
:1013000004900B20059001A91B4800F0FDF9302046
:1013100001900220029000200390022004900B20F4
:10132000059001A9134800F0EFF94FF40050019027
:101330000220029000200390022004900B200590D0
:1013400001A90E4800F0E0F94FF42050019002206E
:10135000029000200390022004900B20059001A928
:10136000074800F0D1F906B010BD0000008002402F
:10137000D8440258000802580000025800040258DD
:10138000001802582DE9F04704460F46904699464A
:101390002068D0F8000200F0010010B10120BDE883
:1013A000F0872068D0F8005225F0787040EA475561
:1013B00025F4F81040EA084545F00C0545F0010514
:1013C0002068C0F8005200F0CBFA064607E000F0B3
:1013D000C7FA801BB0F57A7F01D90120DFE72068CA
:1013E000D0F8000200F001000028F0D12068D0F809
:1013F000040280B2C9F800000020D0E770B50446AE
:101400000D460DB9012070BD94F85200102805D189
:1014100029462046FFF74EFB0020F4E70120F2E7C3
:1014200070B506463068D0F8004224F4706401F0CC
:10143000C7FC05461348854205D31348854202D2AE
:1014400044F400741AE01048854205D30F488542E1
:1014500002D244F4407411E00C48854203D30C4896
:10146000854200D20AE00A48854205D309488542F0
:1014700002D244F4807401E044F480643068C0F81F
:10148000004270BD002D3101C00E1602008793038B
:1014900000E1F50580D1F008014691F851001028CF
:1014A00042D1232081F851000868006840F0020012
:1014B0000A6810600868006840F001000A6810605F
:1014C0000868D0F8000D40F001000A68C2F8000D6D
:1014D000086800F58050D0F8040140F00102086867
:1014E00000F58050C0F80421086800F58050D0F85D
:1014F000080140F00102086800F58050C0F808219A
:10150000086800F58050D0F8600140F481720868E6
:1015100000F58050C0F86021102081F85100222091
:1015200081F85200002070470120FCE7014691F845
:101530005100A8B3232081F85100086800F58050BD
:10154000D0F8040120F00102086800F58050C0F8CE
:101550000421086800F58050D0F8080120F001024D
:10156000086800F58050C0F808210868006820F07D
:1015700001000A6810600868D0F8000D40F0010012
:101580000A68C2F8000D0868006820F002000A68C6
:101590001060102081F8510081F85200002070473F
:1015A000FFE70120FBE72DE9F04104460F46154611
:1015B00037B9606D40F0010060650120BDE8F08141
:1015C00094F8510010285CD1002239462046FFF7DC
:1015D00077F828B1606D40F0020060650120EDE70A
:1015E00004F11800A16A50F8218000BFA06A401CD5
:1015F000A062A06A042802D3A06A001FA06200BFF4
:1016000004F11800A16A50F82110206800F58050FC
:10161000C0F8201100F0A4F9064627E0206800F584
:101620008050D0F8600100F4805070B1606D40F0DF
:1016300008006065206800F58050D0F86001A06562
:10164000E02084F851000120B8E7681C70B100F078
:1016500087F9801BA84200D845B9606D40F00400AE
:101660006065102084F851000120A7E7D8F80C002D
:1016700000F000400028D1D1102084F85100002053
:101680009CE701209AE700002DE9F04705460F4648
:10169000904699462868D0F8000200F0010010B189
:1016A0000120BDE8F0872868D0F8004224F0787067
:1016B00040EA475424F4F81040EA084424F00C00AF
:1016C000041D44F001041FFA89F00D4908600D481B
:1016D000C0F8004200F044F9064607E000F040F987
:1016E000801BB0F57A7F01D90120DAE72868D0F8AD
:1016F000000200F001000028F0D100BFD1E7000097
:101700000482024000800240F8B502460B460021E8
:10171000002600240020824D00BFFCE0012707FACC
:1017200001F61F6807EA0604B4427CD15F68022F05
:1017300002D05F68122F1AD14FEAD10C02F12007B4
:1017400057F82C004F074FEAD76C0F2707FA0CF712
:10175000B8434FEA417C4FEADC6C1F6907FA0CF78B
:1017600038434FEAD10C02F1200747F82C001068EB
:101770004FEA410C032707FA0CF7B8431F7907F02B
:1017800003074FEA410C07FA0CF7384310605F6813
:10179000012F08D05F68022F05D05F68112F02D09B
:1017A0005F68122F17D190684FEA410C032707FAA0
:1017B0000CF7B8434FEA410CDF6807FA0CF73843DF
:1017C0009060506801278F40B8431F79C7F3001716
:1017D0008F4038435060D0684FEA410C032707FA26
:1017E0000CF7B8434FEA410C9F6807FA0CF73843EF
:1017F000D0605F6807F08057B7F1805F95D100BF78
:10180000484F3F6847F00207DFF818C1CCF8007076
:1018100067463F6807F00207009700BF00BF424FCE
:101820004FEA910C00E075E057F82C008F074FEA63
:10183000177C0F2707FA0CF7B8433C4FBA4201D187
:1018400000272DE03A4FBA4201D1012728E0394F55
:10185000BA4201D1022723E0374FBA4201D1032710
:101860001EE0364FBA4201D1042719E0344FBA4284
:1018700001D1052714E0334FBA4201D106270FE00A
:10188000314FBA4201D107270AE0304FBA4201D1A5
:10189000082705E02E4FBA4201D1092700E00A27A8
:1018A0004FEA817C4FEA1C7C07FA0CF738431E4F45
:1018B0004FEA910C47F82C002868A0435F6807F4B2
:1018C0008037B7F5803F00D1204328606868A04387
:1018D0005F6807F40037B7F5003F00D12043686028
:1018E0004FF0B0473868A0435F6807F48017B7F53A
:1018F000801F00D120434FF0B04738607868A04384
:101900005F6807F40017B7F5001F00D120434FF0C0
:10191000B0477860491C1029FFF400AFF8BD000003
:1019200080000058F444025808040058000002588F
:101930000004025800080258000C02580010025817
:101940000014025800180258001C025800200258C7
:10195000002402580AB1018300E04183704700006F
:101960000148006870470000340000240348006804
:10197000034909780844014908607047340000248D
:101980003C00002410B5032000F0E4F8002000F033
:1019900007F808B1012010BD00F08CF80020FAE72C
:1019A00070B504460E4800784FF47A71B1FBF0F040
:1019B0000C490968B1FBF0F5284601F0D3FE08B1E7
:1019C000012070BD102C07D200222146501E00F0CD
:1019D00083F80548046001E00120F2E70020F0E709
:1019E0003C00002440000024380000244178154ABF
:1019F00011600178F9B1121D41681160017B09077E
:101A0000C27A41EA0261827A41EAC241427B41EAFA
:101A10008241827B41EA4241C27B41EA0241427AF1
:101A200041EA0221027A41EA420102781143054A61
:101A30000832116005E00021024A121D1160121DDA
:101A40001160704798ED00E000BF00BF00BFBFF31A
:101A50005F8F00BF00BF00BF0548006820F48030E2
:101A60000349086000200249703108607047000097
:101A700024ED00E040F001010D4A11600C4970397D
:101A8000096841F480310A4A703A116000BF00BF12
:101A900000BFBFF34F8F00BF00BF00BF00BF00BF3C
:101AA00000BFBFF36F8F00BF00BF00BF70470000D3
:101AB00094ED00E008B500BF0648006840F0020061
:101AC000044908600846006800F00200009000BF6A
:101AD00000BF08BDF44402582DE9F05F80460D4672
:101AE000164603F05FFA074639462A46334601F0A8
:101AF0000700C0F1070ABAF1040F02D94FF0040A37
:101B000001E0C0F1070AD14600F1040ABAF1070F5B
:101B100002D24FF0000A01E0A0F1030AD4464FF0D0
:101B2000010A0AFA09FAAAF1010A0AEA020A0AFAF9
:101B30000CFA4FF0010B0BFA0CFBABF1010B0BEAAB
:101B4000030B4AEA0B042146404603F033FABDE892
:101B5000F09F000000BF00F00702064B19684FF627
:101B6000FF031940044B0B4343EA0221014B196068
:101B700000BF70470CED00E00000FA0510B501F061
:101B800067F90949096801F470614FF4807292FAAB
:101B9000A2F2B2FA82F2D140044A515CC840044930
:101BA00008600846006810BD18440258EAF80008AA
:101BB0004000002410B501F003F90749096801F05D
:101BC0007001102292FAA2F2B2FA82F2D140034AD4
:101BD000515CC84010BD000020440258EAF80008DB
:101BE00070B5014600220120002300249FED811AD8
:101BF000B0EE410A9FED7F1AF0EE410A7E4D2D684E
:101C000005F003027C4D2D68C5F305307A4D2D1D7E
:101C10002D6805F01003784D14352D68C5F3CC05FB
:101C200015FB03F501EE105AB8EE411AB0EE410A69
:101C300022B1012A4DD0022A7DD169E06E4D283DA6
:101C40002D68C5F340152DB36B4D283D2D68C5F3A8
:101C5000C1066A4D25FA06F4B4FBF0F501EE105A00
:101C6000F8EE411A9FED661A80EE012A624D10359A
:101C70002D68C5F3080501EE105AB8EE411A32EE90
:101C8000011AB7EE002A31EE021A21EE811AF0EEA7
:101C9000410A1DE0594DB5FBF0F501EE105AF8EE82
:101CA000411A9FED571A80EE012A534D10352D68C9
:101CB000C5F3080501EE105AB8EE411A32EE011ACA
:101CC000B7EE002A31EE021A21EE811AF0EE410A37
:101CD0005EE04C4DB5FBF0F501EE105AB8EE412A2E
:101CE0009FED471AC0EE011A434D10352D68C5F31C
:101CF000080501EE105AB8EE411A31EE811AF7EEDE
:101D0000001A31EE211A22EE011AF0EE410A3FE0EC
:101D10003D4DB5FBF0F501EE105AF8EE411A9FED7E
:101D2000381A80EE012A344D10352D68C5F30805A8
:101D300001EE105A00E00CE0B8EE411A32EE011A42
:101D4000B7EE002A31EE021A21EE811AF0EE410AB6
:101D50001EE02C4DB5FBF0F501EE105AB8EE412A0D
:101D60009FED271AC0EE011A234D10352D68C5F3DB
:101D7000080501EE105AB8EE411A31EE811AF7EE5D
:101D8000001A31EE211A22EE011AF0EE410A00BFCC
:101D900000BF194D10352D68C5F346256D1C01EEA9
:101DA000105AB8EE411AC0EE811ABCEEE11A81ED6C
:101DB000001A114D10352D68C5F306456D1C01EE56
:101DC000105AB8EE411AC0EE811ABCEEE11A81ED4C
:101DD000011A094D10352D68C5F306656D1C01EE1D
:101DE000105AB8EE411AC0EE811ABCEEE11A81ED2C
:101DF000021A70BD00000000284402580090D00371
:101E00000000004600093D0000127A0070B501464E
:101E100000220120002300249FED811AB0EE410A28
:101E20009FED7F1AF0EE410A7E4D2D6805F003020A
:101E30007C4D2D68C5F305507A4D2D1D2D6805F498
:101E40008073784D1C352D68C5F3CC0515FB03F563
:101E500001EE105AB8EE411AB0EE410A22B1012A41
:101E60004DD0022A7DD169E06E4D283D2D68C5F325
:101E700040152DB36B4D283D2D68C5F3C1066A4D45
:101E800025FA06F4B4FBF0F501EE105AF8EE411A0B
:101E90009FED661A80EE012A624D18352D68C5F354
:101EA000080501EE105AB8EE411A32EE011AB7EEEB
:101EB000002A31EE021A21EE811AF0EE410A1DE0ED
:101EC000594DB5FBF0F501EE105AF8EE411A9FEDB1
:101ED000571A80EE012A534D18352D68C5F30805B1
:101EE00001EE105AB8EE411A32EE011AB7EE002A8E
:101EF00031EE021A21EE811AF0EE410A5EE04C4DFD
:101F0000B5FBF0F501EE105AB8EE412A9FED471AE5
:101F1000C0EE011A434D18352D68C5F3080501EED2
:101F2000105AB8EE411A31EE811AF7EE001A31EE6E
:101F3000211A22EE011AF0EE410A3FE03D4DB5FBB9
:101F4000F0F501EE105AF8EE411A9FED381A80EEC6
:101F5000012A344D18352D68C5F3080501EE105AD5
:101F600000E00CE0B8EE411A32EE011AB7EE002A9A
:101F700031EE021A21EE811AF0EE410A1EE02C4DDC
:101F8000B5FBF0F501EE105AB8EE412A9FED271A85
:101F9000C0EE011A234D18352D68C5F3080501EE72
:101FA000105AB8EE411A31EE811AF7EE001A31EEEE
:101FB000211A22EE011AF0EE410A00BF00BF194DAE
:101FC00018352D68C5F346256D1C01EE105AB8EE84
:101FD000411AC0EE811ABCEEE11A81ED001A114DD2
:101FE00018352D68C5F306456D1C01EE105AB8EE84
:101FF000411AC0EE811ABCEEE11A81ED011A094DB9
:1020000018352D68C5F306656D1C01EE105AB8EE43
:10201000411AC0EE811ABCEEE11A81ED021A70BDC0
:1020200000000000284402580090D0030000004641
:1020300000093D0000127A002DE9F0410446002518
:102040000026206800F00060B0F1006F30D1606EB3
:1020500048B1B0F5801F0DD0B0F5001F10D0B0F51D
:10206000401F15D113E0F948006840F40030F749EB
:1020700008600FE00221201D01F012FF054609E073
:10208000022104F1240001F0A3FF054602E001E073
:10209000012500BF00BF55B9EC482430006820F48A
:1020A0004010616E0843E9492431086000E02E4386
:1020B000208800F48070B0F5807F2DD1606D0528F8
:1020C0001AD2DFE800F0030A10171800DF48006892
:1020D00040F40030DD49086010E00021201D01F0CF
:1020E000DFFE05460AE0002104F1240001F070FF44
:1020F000054603E002E001E0012500BF00BF55B93D
:10210000D2482430006820F00700616D0843CF49B1
:102110002431086000E02E43208800F40070B0F500
:10212000007F33D1A06D802817D003DC40B1402858
:102130001CD10CE0C02817D0B0F5807F16D114E078
:10214000C248006840F40030C049086010E0002137
:10215000201D01F0A5FE05460AE0002104F124003F
:1021600001F036FF054603E002E001E0012500BF73
:1021700000BF55B9B5482430006820F4E070A16D67
:102180000843B2492431086000E02E43208800F45F
:102190008060B0F5806F38D1D4F8A400B0F5800F1E
:1021A00019D004DC50B1B0F5001F1DD10DE0B0F521
:1021B000C00F17D0B0F5000F16D114E0A348006887
:1021C00040F40030A149086010E00021201D01F01A
:1021D00067FE05460AE0002104F1240001F0F8FE44
:1021E000054603E002E001E0012500BF00BF5DB944
:1021F00096482C30006820F46000D4F8A4100843FE
:1022000092492C31086000E02E43208800F40060E1
:10221000B0F5006F38D1D4F8A800B0F1007F19D024
:1022200004DC50B1B0F1807F1DD10DE0B0F1407FF2
:1022300017D0B0F1806F16D114E08448006840F4E4
:1022400000308249086010E00021201D01F028FEC6
:1022500005460AE0002104F1240001F0B9FE05461C
:1022600003E002E001E0012500BF00BF5DB977484F
:102270002C30006820F0E060D4F8A81008437349BF
:102280002C31086000E02E43206800F00070B0F1AF
:10229000007F27D1A06CA0B1102804D0202809D03D
:1022A00030280FD10CE06948006840F400306749DD
:1022B000086009E00221201D01F0F2FD054603E05F
:1022C00002E001E0012500BF00BF55B95F482030A2
:1022D000006820F03000A16C08435C4920310860A0
:1022E00000E02E43208800F48050B0F5805F36D1A6
:1022F000E06DB0F5005F19D004DC50B1B0F5805F3F
:102300001DD10DE0B0F5405F17D0B0F5804F16D16C
:1023100014E04E48006840F400304C49086010E07A
:102320000021201D01F0BCFD05460AE0002104F15A
:10233000240001F04DFE054603E002E001E0012526
:1023400000BF00BF55B941482430006820F4E04088
:10235000E16D08433D492431086000E02E432088A8
:1023600000F40050B0F5005F34D1206EB0F5403F6E
:102370001DD007DC68B1B0F5803F0BD0B0F5003F51
:1023800018D10DE0B0F5802F12D0B0F5A02F11D1EB
:102390000FE011E00121201D01F082FD05460BE058
:1023A000012104F1240001F013FE054604E003E0DE
:1023B00002E001E0012500BF00BF55B923482430E9
:1023C000006820F4E020216E084320492431086091
:1023D00000E02E43208800F48040B0F5804F38D1D3
:1023E000D4F8AC00B0F1405F1DD007DC68B1B0F1AB
:1023F000805F0BD0B0F1005F18D10DE0B0F1804FDD
:1024000012D0B0F1A04F11D10FE011E00121201D39
:1024100001F046FD05460BE0012104F1240001F026
:10242000D7FD054604E003E002E001E0012500BF1E
:1024300000BF6DB905482C30006820F0E040D4F8AA
:10244000AC10084301492C31086002E02C440258CA
:102450002E43208800F40040B0F5004F26D1E06EF6
:1024600098B1B0F1805F03D0B0F1005F0ED106E00B
:10247000FA48006840F40030F849086008E001219B
:10248000201D01F00DFD054602E001E0012500BF21
:1024900000BF55B9F1482430006820F04050E16E8B
:1024A0000843EE492431086000E02E43206800F024
:1024B0008070B0F1807F27D1606CA0B1012804D07A
:1024C000022809D003280FD10CE0E448006840F44A
:1024D0000030E249086009E00221201D01F0E0FC23
:1024E000054603E002E001E0012500BF00BF55B949
:1024F000DA482030006820F00300616C0843D749B7
:102500002031086000E02E43206800F48000B0F520
:10251000800F7DD1D248006840F48070D0490860B7
:10252000FFF71EFA074606E0FFF71AFAC01B6428F9
:1025300001D9032505E0CA48006800F4807000282E
:10254000F2D000BF8DBBC5484430006800F4407035
:10255000B4F8B01001F44071884214D0BF48443040
:10256000006820F44078BD484430006840F4803072
:10257000BA49443108600846006820F48030086099
:102580000846C0F80080D4F8B000B0F5807F15D1BF
:10259000FFF7E6F9074609E0FFF7E2F9C01B41F251
:1025A0008831884202D9032507E038E0AB4844303F
:1025B0000068C0F340000028EED000BF4DBB00BF54
:1025C000B4F8B00000F44070B0F5407F0ED1A348DD
:1025D0001C38006820F47C51A24AD4F8B0001040A6
:1025E00041EA10109D491C39086007E09B481C38DF
:1025F000006820F47C5099491C39086097484430A1
:102600000068B4F8B010C1F30B010843934901E02E
:1026100006E002E04431086002E02E4300E02E4371
:10262000207800F0010068B3A06F182819D005DCED
:1026300048B1082808D0102816D10BE0202811D066
:10264000282811D10FE011E00121201D01F028FC04
:1026500005460BE0012104F1240001F0B9FC054618
:1026600004E003E002E001E0012500BF00BF55B92E
:102670007A482830006820F03800A16F0843774975
:102680002831086000E02E43207800F00200022884
:1026900028D1606F062815D2DFE800F003040A1184
:1026A000121311E00121201D01F0FAFB05460BE099
:1026B000012104F1240001F08BFC054604E003E055
:1026C00002E001E0012500BF00BF55B96348283092
:1026D000006820F00700616F0843604928310860F6
:1026E00000E02E43207800F0040004282AD1D4F81A
:1026F0009000062815D2DFE800F003040A11121337
:1027000011E00121201D01F0CBFB05460BE001216A
:1027100004F1240001F05CFC054604E003E002E063
:1027200001E0012500BF00BF5DB94C482C300068B6
:1027300020F00700D4F89010084348492C31086075
:1027400000E02E43207800F02000202836D1D4F875
:102750008C00B0F1405F1DD007DC68B1B0F1805F44
:102760000BD0B0F1005F18D10DE0B0F1804F12D066
:10277000B0F1A04F11D10FE011E00021201D01F0B8
:102780008FFB05460BE0022104F1240001F020FC40
:10279000054604E003E002E001E0012500BF00BFC0
:1027A0005DB92E482830006820F0E040D4F88C1045
:1027B00008432A492831086000E02E43207800F0C1
:1027C0004000402836D1D4F89800B0F5406F1DD0B5
:1027D00007DC68B1B0F5806F0BD0B0F5006F18D191
:1027E0000DE0B0F5805F12D0B0F5A05F11D10FE021
:1027F00011E00021201D01F053FB05460BE00221F2
:1028000004F1240001F0E4FB054604E003E002E0EB
:1028100001E0012500BF00BF5DB910482C30006801
:1028200020F4E050D4F8981008430C492C3108608B
:1028300000E02E43207800F0800080283BD1D4F8BF
:102840009C00B0F5C04F24D00EDCA0B1B0F5005F05
:1028500012D0B0F5804F1FD114E000002C44025874
:1028600000480258FFFCFF0FB0F5004F12D0B0F542
:10287000204F11D10FE011E00021201D01F010FBCD
:1028800005460BE0022104F1240001F0A1FB0546FE
:1028900004E003E002E001E0012500BF00BF4DB904
:1028A000B248006820F46040D4F89C100843AF4957
:1028B000086000E02E43207800F00800082816D1B8
:1028C000D4F88000B0F5805F06D1022104F1240025
:1028D00001F07EFB06430AE0A448001F006820F4D4
:1028E0004050D4F880100843A049091F08602078A0
:1028F00000F01000102814D1D4F89400B0F5807FB7
:1029000006D1022104F1240001F062FB064308E035
:102910009648006820F44070D4F894100843934916
:102920000860206800F40020B0F5002F26D1D4F80C
:10293000A00030B1B0F5803F09D0B0F5003F0ED116
:102940000CE00021201D01F0ABFA054609E0022150
:1029500004F1240001F03CFB054602E001E0012502
:1029600000BF00BF4DB98148006820F44030D4F862
:10297000A01008437D49086000E02E43206800F461
:102980008020B0F5802F2DD1D4F88400B0F5801FC1
:1029900006D0B0F5001F0CD0B0F5401F11D10FE0EC
:1029A00072482C38006840F4003070492C390860B7
:1029B00009E0012104F1240001F00AFB054602E0D0
:1029C00001E0012500BF00BF5DB96848001F006835
:1029D00020F44010D4F8841008436449091F0860AB
:1029E00000E02E43206800F48030B0F5803F24D111
:1029F000E06C18B1B0F5803F0FD108E05B482C388F
:102A0000006840F4003059492C39086007E0022181
:102A1000201D01F045FA054601E0012500BF00BF79
:102A200055B952480C38006820F48030E16C0843F6
:102A30004E490C39086000E02E43206800F0005039
:102A4000B0F1005F05D1022104F1240001F0C0FAC9
:102A50000643206800F40030B0F5003F27D1E06F56
:102A6000A0B1B0F5807F06D0B0F5007F0CD0B0F5F6
:102A7000407F0CD109E03D482C38006840F400301C
:102A80003A492C39086004E003E002E001E0012546
:102A900000BF00BF55B93548001F006820F44070E2
:102AA000E16F08433149091F086000E02E432068A8
:102AB00000F48010B0F5801F09D12C480838006858
:102AC00020F00040216F0843284908390860206839
:102AD00000F08050B0F1805F0AD124484838006887
:102AE00020F48040D4F8B4100843204948390860E5
:102AF000206800F40010B0F5001F09D11B48083809
:102B0000006820F08070A16E0843184908390860F9
:102B1000206800F08040B0F1804F11D100BF134811
:102B20004838006820F400401049483908600846D9
:102B30000068D4F8B81008430C494839086000BF51
:102B4000206800F00040B0F1004F09D107480C3870
:102B5000006820F04050216D084304490C3908609A
:102B600016B90020BDE8F0810120FBE75844025867
:102B700070B504460D4600268D48006800F0070039
:102B8000A8420ED28A48006820F0070028438849EE
:102B900008600846006800F00700A84201D0012044
:102BA00070BD207800F00200022807D1814800683B
:102BB00020F00F00E16808437E490860207800F0AB
:102BC0000100002851D07B48006820F47060A168A3
:102BD0000843784908606068022807D175481838AA
:102BE0000068C0F34040F8B90120D9E760680328C5
:102BF00007D1704818380068C0F34060A0B90120C0
:102C0000CEE76068012807D16A4818380068C0F329
:102C1000002048B90120C3E7664818380068C0F3AF
:102C2000800008B90120BBE762480838006820F03E
:102C30000700616808435F4908390860FEF790FEA5
:102C400006466068022811D108E0FEF789FE801B65
:102C500041F28831884201D90320A1E7554808385C
:102C6000006800F038001028EFD13AE060680328CF
:102C700011D108E0FEF774FE801B41F288318842D2
:102C800001D903208CE74B480838006800F0380071
:102C90001828EFD125E06068012811D108E0FEF77F
:102CA0005FFE801B41F28831884201D9032077E71B
:102CB00040480838006800F038000828EFD110E0DC
:102CC00008E0FEF74DFE801B41F28831884201D9B1
:102CD000032065E737480838006800F0380000280E
:102CE000EFD13348006800F00700A8420ED9304801
:102CF000006820F0070028432D4908600846006856
:102D000000F00700A84201D0012049E7207800F038
:102D10000400042807D12748006820F070002169CA
:102D2000084324490860207800F00800082809D1E9
:102D30002048001D006820F07000616908431D49AB
:102D4000091D0860207800F01000102809D11948EA
:102D5000001D006820F4E060A16908431549091DC1
:102D60000860207800F02000202809D111480830A0
:102D7000006820F07000E16908430E4908310860DE
:102D800000F066F80B49096801F470614FF4807235
:102D900092FAA2F2B2FA82F2D140074A515CC840DC
:102DA000064908600020FEF7FBFD0020F8E6000061
:102DB0000020005218440258EAF80008400000249D
:102DC00010B5FEF7DBFE0949096801F00F01012289
:102DD00092FAA2F2B2FA82F2D140054A515CC8409E
:102DE000044908600846006810BD000018440258F5
:102DF000EAF800084400002410B5FFF7E1FF074996
:102E0000096801F07001102292FAA2F2B2FA82F27D
:102E1000D140034A515CC84010BD00001C44025818
:102E2000EAF8000810B5FFF7CBFF0749096801F47D
:102E3000E0614FF4807292FAA2F2B2FA82F2D140CB
:102E4000024A515CC84010BD1C440258EAF8000810
:102E500070B5012500EE905A0022012100230024C4
:102E6000DFED861AB0EE610ADFED841AB0EE611A6A
:102E70000020834D2D6805F0380535B1082D15D09B
:102E8000102D15D0182D7CD114E07D4D103D2D68EE
:102E9000C5F3401545B17A4D103D2D68C5F3C10607
:102EA000784D25FA06F000E07648E5E07648E3E064
:102EB0007648E1E0724D18352D6805F00302704D3B
:102EC00018352D68C5F305116D4D1C352D6805F0BD
:102ED00001036B4D24352D68C5F3CC0515FB03F5B7
:102EE00001EE905AF8EE611AB0EE610A22B1012AA1
:102EF0004FD0022A7DD16BE0614D103D2D68C5F3A6
:102F000040152DB35E4D103D2D68C5F3C1065D4DD6
:102F100025FA06F4B4FBF1F501EE905AB8EE612AF9
:102F2000DFED5B1AC0EE212A554D20352D68C5F323
:102F3000080501EE905AF8EE611A72EEA11AF7EE4A
:102F4000002A71EEA21A62EE211AB0EE611A1FE099
:102F50004C4DB5FBF1F501EE905AB8EE612ADFED6C
:102F60004C1AC0EE212A464D20352D68C5F30805C0
:102F700001EE905AF8EE611A72EEA11AF7EE002AED
:102F800000E077E071EEA21A62EE211AB0EE611A4B
:102F90005EE03D4DB5FBF1F501EE905AB8EE612AC9
:102FA000DFED3B1AC0EE212A354D20352D68C5F3E3
:102FB000080501EE905AF8EE611A72EEA11AF7EECA
:102FC000002A71EEA21A62EE211AB0EE611A3FE0F9
:102FD0002E4DB5FBF1F501EE905AB8EE612ADFED0A
:102FE0002C1AC0EE212A264D20352D68C5F3080580
:102FF00000E00EE001EE905AF8EE611A72EEA11AAE
:10300000F7EE002A71EEA21A62EE211AB0EE611AF2
:103010001EE01D4DB5FBF1F501EE905AF8EE612A68
:10302000DFED1B1A80EE212A154D20352D68C5F3E2
:10303000080501EE905AF8EE611A72EE211AB7EE09
:10304000002A71EE821A62EEA11AB0EE611A00BF78
:1030500000BF0B4D20352D68C5F346256D1C00EED5
:10306000905AF8EE601A81EE212AFCEEC21A11EE97
:10307000900A01E0044800BF00BF70BD00000000DE
:10308000104402580090D00300093D0000127A005D
:103090000000004670B504460025207800F00100CD
:1030A000002870D0F748006800F0380010280CD0D5
:1030B000F448006800F03800182812D1F1481830A0
:1030C000006800F0030002280BD1EE4810380068B9
:1030D000C0F34040002869D06068002866D1012014
:1030E00070BD00BF6068B0F5803F08D1E54810387A
:1030F000006840F48030E349103908602EE06068D1
:1031000068B9E0481038006820F48030DD49103993
:1031100008600846006820F4802008601EE06068AF
:10312000B0F5A02F0DD1D7481038006840F48020AA
:10313000D449103908600846006840F480300860BF
:103140000CE0D0481038006820F48030CD491039A8
:1031500008600846006820F48020086000BF6068AE
:1031600090B1FEF7FDFB054606E0FEF7F9FB401BBC
:10317000642801D90320B3E7C24810380068C0F3BF
:1031800040400028F1D011E0FEF7EAFB054606E0DA
:10319000FEF7E6FB401B642801D90320A0E7B948ED
:1031A00010380068C0F340400028F1D1207800F0CA
:1031B0000200022847D1B348006800F0380058B137
:1031C000B048006800F0380018283ED1AD481830EB
:1031D000006800F00300B8BBAA4810380068C0F3CC
:1031E000800018B1E06808B9012079E7A5481038D7
:1031F000006820F01900E1680843A249103908600E
:10320000FEF7AEFB054606E0FEF7AAFB401B0228D0
:1032100001D9032064E79B4810380068C0F38000A0
:103220000028F1D097480C38006820F47C304FF427
:103230007C3292FAA2F2B2FA82F2216991400843FA
:1032400090490C3908604AE0FFE7E06868B38D48B0
:103250001038006820F01900E168084389491039E6
:103260000860FEF77DFB054606E0FEF779FB401B94
:10327000022801D9032033E7824810380068C0F3E0
:1032800080000028F1D07F480C38006820F47C30A2
:103290004FF47C3292FAA2F2B2FA82F221699140A2
:1032A000084378490C39086019E0764810380068FE
:1032B00020F00100734910390860FEF751FB054604
:1032C00006E0FEF74DFB401B022801D9032007E76B
:1032D0006C4810380068C0F380000028F1D12078D5
:1032E00000F01000102877D16648006800F0380020
:1032F00008280CD06348006800F03800182823D153
:1033000060481830006800F0030001281CD15D48B7
:1033100010380068C0F3002020B1E069802801D097
:103320000120DDE657480C38006820F0F8404FF0E7
:10333000F84292FAA2F2B2FA82F2216A914008436C
:1033400050490C39086047E0E06958B34D481038DF
:10335000006840F080004B4910390860FEF700FB20
:10336000054606E0FEF7FCFA401B022801D90320BF
:10337000B6E6444810380068C0F300200028F1D0B9
:1033800040480C38006820F0F8404FF0F84292FABC
:10339000A2F2B2FA82F2216A9140084339490C390B
:1033A000086019E037481038006820F0800035497F
:1033B00010390860FEF7D4FA054606E0FEF7D0FAA9
:1033C000401B022801D903208AE62E4810380068E5
:1033D000C0F300200028F1D1207800F00800082870
:1033E00036D16069D0B127486430006840F00100F0
:1033F000244964310860FEF7B3FA054606E0FEF79B
:10340000AFFA401B022801D9032069E61D48643049
:103410000068C0F340000028F1D019E0194864307A
:10342000006820F00100174964310860FEF798FA3F
:10343000054606E0FEF794FA401B022801D9032056
:103440004EE6104864300068C0F340000028F1D117
:10345000207800F02000202834D1A069D8B1094894
:103460001038006840F48050064910390860FEF7B3
:1034700077FA054608E0FEF773FA401B022803D9E5
:1034800003202DE610440258AF480068C0F34030D6
:103490000028F0D016E0AC48006820F48050AA491B
:1034A0000860FEF75DFA054606E0FEF759FA401B94
:1034B000022801D9032013E6A3480068C0F3403076
:1034C0000028F2D1207800F0040004287DD19F4824
:1034D000006840F480709D490860FEF741FA054697
:1034E00006E0FEF73DFA401B642801D90320F7E50A
:1034F0009648006800F480700028F2D000BFA068F1
:10350000012808D190487030006840F001008E49D1
:10351000703108602DE0A06868B98B487030006891
:1035200020F001008849703108600846006820F0EA
:10353000040008601DE0A06805280DD182487030A5
:10354000006840F004008049703108600846006857
:1035500040F0010008600CE07B487030006820F00B
:1035600001007949703108600846006820F00400C5
:10357000086000BFA068A0B1FEF7F2F9054608E0B8
:10358000FEF7EEF9401B41F28831884201D9032051
:10359000A6E56D4870300068C0F340000028EFD009
:1035A00013E0FEF7DDF9054608E0FEF7D9F9401B08
:1035B00041F28831884201D9032091E56248703098
:1035C0000068C0F340000028EFD1606A00287CD07A
:1035D0005D481030006800F03800182876D0606A26
:1035E000022874D15848006820F08070564908605D
:1035F000FEF7B6F9054606E0FEF7B2F9401B0228D1
:1036000001D903206CE550480068C0F340600028F1
:10361000F2D100BFD4E90A1041EA00104A4928312A
:10362000096840F2F3329143084347492831086062
:10363000208E401EC0F30800616B491E4FF47E428D
:1036400002EA41210843218F491ED20102EA0141C9
:1036500008433C21095D491E120202EA0161084348
:1036600039493031086000BF081D00684FF6F87115
:1036700088434FF6F87292FAA2F2B2FA82F2A16C83
:10368000914008433049343108602F482C3000689D
:1036900020F00C00216C08432B492C3108600846AF
:1036A000006820F00200616C084327492C31086053
:1036B0000846006840F4803008600846006840F41E
:1036C000003008600846006802E03BE038E01FE098
:1036D00040F4802008600846006840F0010008605F
:1036E0001948006840F0807017490860FEF738F903
:1036F000054606E0FEF734F9401B022801D90320F5
:10370000EEE411480068C0F340600028F2D019E0F0
:103710000D48006820F080700B490860FEF720F922
:10372000054606E0FEF71CF9401B022801D90320DC
:10373000D6E405480068C0F340600028F2D101E0FB
:103740000120CDE40020CBE4004402580048025898
:103750000349096821F460010143014A116070477F
:103760000404005870B504462546681EB0F1807FF9
:1037700001D301200FE0681E4FF0E02148610F21C6
:103780004FF0FF3001F016FC00204FF0E02188617F
:1037900007200861002070BD10B504460CB9012057
:1037A00010BDA06900B100E000BF94F8790028B90D
:1037B000002084F87800204600F02AF8242084F8BD
:1037C00079002068006820F0010021680860204628
:1037D00000F0CEFE012800D1E2E7606B10B1204678
:1037E00000F016FE2068406820F490402168486090
:1037F0002068806820F02A002168886020680068BE
:1038000040F0010021680860204600F076FEC7E71E
:1038100010B586B00446142101A8FCF7A3FD194990
:10382000206888422BD100BF1748006840F48020F0
:10383000154908600846006800F48020009000BF29
:1038400000BF00BF10480838006840F008000E496B
:10385000083908600846006800F00800009000BFC2
:1038600000BF4FF4407001900220029000200390AE
:1038700004900720059001A90448FDF745FF06B014
:1038800010BD000000480040E8440258000C0258F7
:1038900000BFFEE738B50446002000906A460121CB
:1038A000636920689847002802DA6FF0040038BD89
:1038B0006A460121636920689847002802DA6FF0A0
:1038C0000400F4E7009800F0040008B90120EEE7D6
:1038D0006A460021636920689847002802DA6FF081
:1038E0000400E4E7009800F48050B0F5805F1FD03A
:1038F000009800F40050B0F5005F07D1009800F484
:103900008070B0F5807F01D10220D0E7009800F4EC
:103910000050B0F5005F01D10320C8E7009800F423
:103920008070B0F5807F01D10420C0E70520BEE79C
:103930006A461F21636920689847002802DA6FF001
:103940000400B4E7009800F4805008B90620AEE700
:10395000009800F01C00182801D10220A7E7009869
:1039600000F01C00082801D10320A0E7009800F017
:103970001C00142801D1042099E7052097E7F8B529
:1039800004460027002000900025002660680028DB
:1039900054D1A06808B1A06880472020206000258D
:1039A00013E06A461221284663699847002802DA24
:1039B0006FF0040608E0009800F01F00A84202D152
:1039C0002560002603E000BF6D1C1F2DE9D900BF54
:1039D00020681F2801D96FF002064EBB4FF4004249
:1039E0000021236920689847002825DB6A460021CA
:1039F00063692068984700281BDBA0698047074659
:103A000011E0A0698047C01BB0F5FA7F09D86A466B
:103A10000021636920689847002804DA6FF00406E3
:103A200006E06FF00106009800F400400028E8D19D
:103A300004E06FF0040601E06FF003065EB9A069D0
:103A40008047074600BFA0698047C01BB0F5FA6FEA
:103A5000F9D9012060603046F8BD02462AB1C86835
:103A600018B1886808B1086910B94FF0FF30704785
:103A7000086890604B68D360CB6853618B681361B2
:103A80000B6993610020F2E71FB5FDF7DDFF012010
:103A90008DF800001F48019007208DF808000320D2
:103AA0008DF80B0001208DF80F0000208DF80E001E
:103AB0008DF80D008DF801008DF80A008DF80900D1
:103AC0008DF80C006846FDF791FF01208DF800008D
:103AD000114801900D208DF8080003208DF80B008F
:103AE00000208DF80F0001208DF80E0000208DF8C9
:103AF0000D0001208DF8010000208DF80A008DF8DE
:103B000009008DF80C006846FDF770FF0420FDF7F2
:103B1000B1FF1FBD000004300040043000B587B085
:103B2000142102A8FCF71EFC00BF3148006840F0D9
:103B300004002F4908600846006800F00400019066
:103B400000BF00BF00BF0846006840F0800008606A
:103B50000846006800F08000019000BF00BF00BF71
:103B60000846006840F0010008600846006800F060
:103B70000100019000BF00BF00BF0846006840F090
:103B8000020008600846006800F00200019000BFD3
:103B900000BF00BF0846006840F008000860084603
:103BA000006800F00800019000BF00BF00BF084699
:103BB000006840F0400008600846006800F04000DF
:103BC000019000BF00BF01224FF481410948FDF779
:103BD000C1FE4FF481400290012003900490022026
:103BE000059002A90348FDF78FFD07B000BD000056
:103BF000E0440258000402580EB5C0208449087001
:103C0000A820487000208870F020C870FF208149EB
:103C10000870487088700020C870C0207E49087005
:103C2000A8204870002088700120C87004F0A6FA0F
:103C30007748007800067649497840EA014074499F
:103C4000897840EA01207249C97808430206704821
:103C5000007800066E49497840EA01406C4989784D
:103C600040EA01206A49C978084300F47F4042EAEB
:103C700000226748007800066549497840EA01411A
:103C80006348807841EA00206149C978084300F41C
:103C90007F0042EA10225E48007801065C484078C6
:103CA00041EA00415A48807841EA00205849C978E1
:103CB000084342EA106059490860564800780006F7
:103CC0005449497840EA01405249897840EA012044
:103CD0005049C978084302064E48007800064D490D
:103CE000497840EA01404B49897840EA0120494936
:103CF000C978084300F47F4042EA00224548007832
:103D000000064449497840EA01414248807841EA46
:103D100000204049C978084300F47F0042EA10229D
:103D20003C48007801063B48407841EA0041394868
:103D3000807841EA00203749C978084342EA106098
:103D4000374908603448007800063349497840EA2A
:103D500001403149897840EA01202F49C978084358
:103D600002062D48007800062B49497840EA0140B8
:103D70002949897840EA01202749C978084300F495
:103D80007F4042EA00222448007800062249497810
:103D900040EA01412048807841EA00201E49C97864
:103DA000084300F47F0042EA10221B480078010615
:103DB0001948407841EA00411748807841EA0020DC
:103DC0001549C978084342EA106016490860164848
:103DD00016490022134BCDE900210290104A0F49E9
:103DE000134804F0B7FE124804F06CFF104890F836
:103DF0003300C0F3800018B10D4804F0F4FF02E076
:103E00000B4804F065FF0B49094804F0B1FF0EBDF3
:103E100010000024140000241800002404000024D2
:103E2000080000240C000024F1630008DD6600088F
:103E3000F0000024C565000810B5044802F096FCA7
:103E400006F0F0F80148FCF701FF10BDF000002477
:103E500010B50F480F4908604FF4E1304860002169
:103E60000C488160C16001610C21416100218161C8
:103E7000C161016241628162C16201630020054942
:103E800048630846FFF788FC08B1FCF7DDFE10BD6B
:103E9000004800403402002400BFFEE7704770472E
:103EA0002DE9F04104460E4600274848006800F01E
:103EB0000300032802D10120BDE8F08143482838DF
:103EC000006820F08060414928390860FDF748FD0E
:103ED000054606E0FDF744FD401B022801D90320FA
:103EE000EAE73A4828380068C0F3C0600028F1D1FA
:103EF00000BF3648006820F47C30216840EA013079
:103F000032490860A088401EC0F30800A168491E1D
:103F10004FF47E4202EA41210843A189491ED201A1
:103F200002EA01410843217C491E120202EA0161B2
:103F3000084326491031086000BF2448001D00686E
:103F400020F0C000616908432049091D0860084647
:103F5000006820F02000A16908431C49091D086081
:103F60002EB90846006840F40020086012E0012ED7
:103F700008D11648001D006840F480101349091D3F
:103F8000086007E01148001D006840F400100F4968
:103F9000091D08600D482838006840F080600B4912
:103FA00028390860FDF7DCFC054606E0FDF7D8FC83
:103FB000401B022801D903207EE704482838006806
:103FC000C0F3C0600028F1D0384675E72844025895
:103FD0002DE9F04104460E4600274848006800F0ED
:103FE0000300032802D10120BDE8F08143482838AE
:103FF000006820F08050414928390860FDF7B0FC86
:10400000054606E0FDF7ACFC401B022801D9032061
:10401000EAE73A4828380068C0F340700028F1D138
:1040200000BF3648006820F07C70218840EA0150CB
:1040300032490860A088401EC0F30800A168491EEC
:104040004FF47E4202EA41210843A189491ED20170
:1040500002EA01410843217C491E120202EA016181
:10406000084326491831086000BF2448001D006835
:1040700020F44060616908432049091D0860084632
:10408000006820F40070A16908431C49091D0860FC
:104090002EB90846006840F48000086012E0012E46
:1040A00008D11648001D006840F400001349091D9E
:1040B000086007E01148001D006840F080700F495B
:1040C000091D08600D482838006840F080500B49F1
:1040D00028390860FDF744FC054606E0FDF740FC82
:1040E000401B022801D903207EE7044828380068D5
:1040F000C0F340700028F1D0384675E728440258D4
:1041000010B500231B4C236000BF00BF00BFBFF3EE
:104110004F8F00BF00BF00BF231F1868C0F34E3190
:1041200000BFC0F3C90200BF43F6E07303EA4113C6
:104130004FF0404404EA827423430F4C236000BFD5
:1041400000BF131EA2F10102EED10B1EA1F101016D
:10415000E7D100BF00BF00BFBFF34F8F00BF00BF5C
:1041600000BF00BF00BF00BFBFF36F8F00BF00BF25
:1041700000BF10BD84ED00E074EF00E010B5002337
:10418000234C236000BF00BF00BFBFF34F8F00BFB1
:1041900000BF00BF231F1868C0F34E3100BFC0F33B
:1041A000C90200BF43F6E07303EA41134FF04044F5
:1041B00004EA82742343174C236000BF00BF131E20
:1041C000A2F10102EED10B1EA1F10101E7D100BF66
:1041D00000BF00BFBFF34F8F00BF00BF00BF0C4B3D
:1041E000703B1B6843F48033094C703C236000BF74
:1041F00000BF00BFBFF34F8F00BF00BF00BF00BFB5
:1042000000BF00BFBFF36F8F00BF00BF00BF10BD76
:1042100084ED00E060EF00E000BF00BF00BFBFF32F
:104220004F8F00BF00BF00BF00BF00BF00BFBFF384
:104230006F8F00BF00BF00BF00201449086000BF9F
:1042400000BF00BFBFF34F8F00BF00BF00BF00BF64
:1042500000BF00BFBFF36F8F00BF00BF00BF0C489F
:10426000006840F400300A49086000BF00BF00BF8A
:10427000BFF34F8F00BF00BF00BF00BF00BF00BF34
:10428000BFF36F8F00BF00BF00BF704750EF00E06B
:1042900014ED00E0704710B5FDF768FB10BD00009D
:1042A00000B5CBB04C2138A8FCF75CF8202130A831
:1042B000FCF758F8BC2101A8FCF754F82E48006818
:1042C00020F004002C49086000BF002000902A481C
:1042D0000C30006840F4404027490C310860084623
:1042E000006800F44040009000BF00BF00BF2248BB
:1042F0000C30006800F40050B0F5005FF7D10120E9
:1043000038900004399002204190022138A881623F
:104310000121C16264210163022141638163C163A0
:104320000C210164002141648164FEF7B3FE08B1F1
:10433000FCF78AFC3F20309003203190002032901F
:104340000820339040203490359000013690402072
:104350003790022130A8FEF70BFC08B1FCF774FC83
:104360000220019000201E9001A8FDF765FE08B113
:10437000FCF76AFC4BB000BD0C48025820480068AE
:1043800040F470001E4908601E48006840F00100BB
:104390001C49086000201B4910310860194800685A
:1043A000194908401749086000201649183108606B
:1043B000091D0860091D0860124928310860091D9F
:1043C0000860091D0860091D0860091D0860091DB5
:1043D0000860091D0860091D08600A48006820F48B
:1043E00080200849086000200649603108600120EB
:1043F00006490860C006024980390860704700001D
:1044000088ED00E0004402587FEDF6EA0881005193
:1044100090F8341001F0010139B10168496821F4C4
:104420000031826B11430268516090F8341001F042
:10443000020139B10168496821F48031C26B11432E
:104440000268516090F8341001F0040139B101683C
:10445000496821F48021026C11430268516090F890
:10446000341001F0080139B10168496821F40041B4
:10447000426C11430268516090F8341001F0100151
:1044800039B10168896821F48051826C1143026856
:10449000916090F8341001F0200139B10168896809
:1044A00021F40051C26C11430268916090F83410FD
:1044B00001F0400199B10168496821F48011026D51
:1044C000114302685160016DB1F5801F07D1016889
:1044D000496821F4C001426D11430268516090F8AF
:1044E000341001F0800139B10168496821F40021DC
:1044F000826D114302685160704738B5044600254B
:104500000020E067FDF72CFA05462068006800F0FF
:10451000080008280CD16FF07E402B4600224FF493
:1045200000110090204600F0F5FC08B1032038BDD2
:104530002068006800F0040004280CD16FF07E4071
:104540002B4600224FF480010090204600F0E2FC50
:1045500008B10320EBE7202084F8790084F87A0082
:1045600000BF002084F8780000BF00BFDFE7000034
:104570002DE9F04F89B0044600254FF08008A94688
:10458000AA4600200890FA492068884201D10120FB
:1045900000E0002000B100E000BFA06AB0F1005FC1
:1045A00000D100BF2169A068084361690843E1693F
:1045B00040EA0105A06A054320680068ED4908400B
:1045C0002843216808602068406820F44050E16872
:1045D000084321684860A569E5492068884201D1FF
:1045E000012000E0002008B9206A0543A06AB0F16C
:1045F000005F03D1D4E90B010843054320688068BC
:10460000DD4908402843216888602068C06A20F09E
:104610000F00616A08432168C86200BFD74920685B
:10462000884224D1D648006800F03800182814D0F9
:1046300005DC48B108280AD0102817D10AE0202844
:104640000ED0282812D10EE04FF001080EE04FF0F6
:1046500004080BE04FF0400808E04FF0080805E0C0
:104660004FF0100802E04FF0200800BF17E1C549E5
:10467000206888421DD1C248006800F00700062863
:1046800016D2DFE800F00306090C0F124FF0000805
:104690000EE04FF004080BE04FF0400808E04FF048
:1046A000080805E04FF0100802E04FF0200800BFB6
:1046B000F5E0B549206888421DD1B148006800F096
:1046C0000700062816D2DFE800F00306090C0F12D7
:1046D0004FF000080EE04FF004080BE04FF04008E8
:1046E00008E04FF0080805E04FF0100802E04FF036
:1046F000200800BFD3E0A549206888421DD1A0480A
:10470000006800F00700062816D2DFE800F0030674
:10471000090C0F124FF000080EE04FF004080BE0F8
:104720004FF0400808E04FF0080805E04FF010088F
:1047300002E04FF0200800BFB1E0954920688842B0
:104740001DD18F48006800F00700062816D2DFE868
:1047500000F00306090C0F124FF000080EE04FF0B6
:1047600004080BE04FF0400808E04FF0080805E0AF
:104770004FF0100802E04FF0200800BF8FE085499D
:104780002068884224D17E48006800F0380018284C
:1047900014D005DC48B108280AD0102817D10AE047
:1047A00020280ED0282812D10EE04FF001080EE08C
:1047B0004FF004080BE04FF0400808E04FF0080805
:1047C00005E04FF0100802E04FF0200800BF66E05F
:1047D0007149206888421DD16948006800F00700CF
:1047E000062816D2DFE800F00306090C0F124FF07E
:1047F00000080EE04FF004080BE04FF0400808E01E
:104800004FF0080805E04FF0100802E04FF02008D4
:1048100000BF44E06149206888421DD158480068C3
:1048200000F00700062816D2DFE800F00306090CA6
:104830000F124FF000080EE04FF004080BE04FF0AD
:10484000400808E04FF0080805E04FF0100802E0CB
:104850004FF0200800BF22E04549206888421ED161
:104860004748001D006800F00700062816D2DFE860
:1048700000F00306090C0F124FF002080EE04FF093
:1048800004080BE04FF0400808E04FF0080805E08E
:104890004FF0100802E04FF0200800BF00BF00BF3B
:1048A00033492068884201D1012000E0002000281F
:1048B0005DD00025B8F1100F33D009DCB8F1020F3C
:1048C00010D0B8F1040F11D0B8F1080F2ED117E0B5
:1048D000B8F1200F27D0B8F1400F0CD0B8F1800FFD
:1048E00024D124E0FDF766F9054623E005A8FDF78D
:1048F00077F9069D1EE002A8FDF788FA039D19E0EE
:104900001F4854380068C0F3401040B11C48543868
:104910000068C0F3C101224820FA01F500E0204DF3
:1049200008E0204D06E04FF4004503E000BF012001
:10493000089000BF00BF002D0AD0606800EB400067
:10494000A84203D860680003A84202D20120089060
:10495000D4E2B8F1100F7CD026DCB8F1020F2DD0D4
:10496000B8F1040F52D0B8F1080F73D19EE03FE1C7
:10497000000C0058F369FFCFFFF4FF110010014055
:10498000544402580044004000480040004C00409D
:10499000005000400014014000780040007C0040BE
:1049A0000090D00300093D00B8F1200F7DD0B8F190
:1049B000400F54D0B8F1800FD7D109E1FDF7FAF8D4
:1049C00000270646FB49606A31F810C062463B4644
:1049D00030463946FBF77CFC4FF4807600220346D4
:1049E000A3FB060701FB067103FB0213616849087C
:1049F000064671185A41CDE9001266683246002316
:104A000008460199FBF764FC0546E4E005A8FDF7BC
:104A1000E7F8DDF818C0E749606A31F810B05A4687
:104A2000002360461946FBF753FC4FF4807C0022BC
:104A3000A0FB0C3B01FB0CB100FB021061684908B4
:104A40005E1840EB0201D4F804C0624600233046F1
:104A500001E079E0BBE0FBF73BFC0546BBE002A8C8
:104A6000FDF7D4F9DDF80CC0D249606A31F810B016
:104A70005A46002360461946FBF72AFC4FF4807C17
:104A80000022A0FB0C3B01FB0CB100FB0210616893
:104A900049085E1840EB0201D4F804C062460023C6
:104AA0003046FBF715FC054695E06EE0C24800680D
:104AB000C0F3401038B3C0480068C0F3C101BF481C
:104AC00020FA01FCBB49606A31F810B05A46002355
:104AD00060461946FBF7FCFB4FF4807C0022A0FBEC
:104AE0000C3B01FB0CB100FB0210616849085E1829
:104AF00040EB0201D4F804C0624600233046FBF7C5
:104B0000E7FB05461FE0AB49606A31F810C062461A
:104B10000023AA481946FBF7DBFB4FF4807C0022F8
:104B2000A0FB0C3B01FB0CB100FB021061684908C3
:104B30005E1840EB0201D4F804C062460023304600
:104B4000FBF7C6FB054646E09A49606A31F810C09B
:104B5000624600239A481946FBF7BAFB4FF4807C63
:104B60000022A0FB0C3B01FB0CB100FB02106168B2
:104B700049085E1840EB0201D4F804C062460023E5
:104B80003046FBF7A5FB054625E08A49606A31F807
:104B900010C0624600234FF400401946FBF798FB13
:104BA0004FF4807C0022A0FB0C3B01FB0CB100FB0E
:104BB0000210616849085E1840EB0201D4F804C095
:104BC000624600233046FBF783FB054603E000BF47
:104BD0000120089000BF00BFB5F5407F05D3B5F5B3
:104BE000801F02D22068C56088E10120089085E11D
:104BF000E069B0F5004F7CD1B8F1100F7AD00CDC31
:104C0000B8F1000F13D0B8F1010F21D0B8F1040FA3
:104C10002FD0B8F1080F6ED151E0B8F1200F6BD052
:104C2000B8F1400F38D0B8F1800F64D197E0FEF7AB
:104C3000E3F8604A616A32F81110B0FBF1F040000D
:104C4000616800EB5100B0FBF1F01FFA80FA89E0D7
:104C5000FEF7E8F8574A616A32F81110B0FBF1F03C
:104C60004000616800EB5100B0FBF1F01FFA80FAE0
:104C700078E005A8FCF7B4FF06994E4A606A32F85E
:104C80001000B1FBF0F04000616800EB5100B0FB98
:104C9000F1F01FFA80FA65E002A8FDF7B7F8039972
:104CA000444A606A32F81000B1FBF0F040006168DD
:104CB00000EB5100B0FBF1F01FFA80FA52E03E48E1
:104CC0000068C0F34010C0B13B480068C0F3C101A8
:104CD0003A48C840374A616A32F81110B0FBF1F027
:104CE0004000616800EB5100B0FBF1F01FFA80FA60
:104CF00012E044E011E031E01FE02E49606A31F833
:104D000010002E49B1FBF0F04000616800EB51004B
:104D1000B0FBF1F01FFA80FA24E02649606A31F80E
:104D200010002749B1FBF0F04000616800EB510032
:104D3000B0FBF1F01FFA80FA14E01E49606A31F806
:104D400010004FF40041B1FBF0F04000616800EB4F
:104D50005100B0FBF1F01FFA80FA03E000BF012020
:104D6000089000BF00BF4FF6F0700AEA0009CAF3CE
:104D7000420049EA00092068C0F80C90BEE0B8F192
:104D8000100F7CD00CDCB8F1000F1BD0B8F1010F74
:104D900029D0B8F1040F37D0B8F1080F70D159E01D
:104DA000B8F1200F6DD0B8F1400F40D0B8F1800FAE
:104DB00066D19FE0BAF80008004402580090D00382
:104DC00000093D00FEF718F84E4A616A32F81110EA
:104DD000B0FBF1F0616800EB5100B0FBF1F080B284
:104DE0002168C86089E0FEF71DF8464A616A32F81A
:104DF0001110B0FBF1F0616800EB5100B0FBF1F075
:104E000080B22168C86078E005A8FCF7E9FE069941
:104E10003C4A606A32F81000B1FBF0F0616800EBC8
:104E20005100B0FBF1F080B22168C86065E002A8D3
:104E3000FCF7ECFF0399334A606A32F81000B1FBCB
:104E4000F0F0616800EB5100B0FBF1F080B2216836
:104E5000C86052E02C480068C0F34010C0B12A4836
:104E60000068C0F3C1012948C840264A616A32F887
:104E70001110B0FBF1F0616800EB510002E017E0A7
:104E800037E025E0B0FBF1F080B22168C8600EE0A9
:104E90001C49606A31F810001C49B1FBF0F06168F0
:104EA00000EB5100B0FBF1F080B22168C86024E053
:104EB0001449606A31F810001549B1FBF0F06168DF
:104EC00000EB5100B0FBF1F080B22168C86014E043
:104ED0000C49606A31F810004FF40041B1FBF0F06A
:104EE000616800EB5100B0FBF1F080B22168C8604E
:104EF00003E000BF0120089000BF00BF089809B080
:104F0000BDE8F08FBAF80008004402580090D003C2
:104F100000093D002DE9F04104460D46174698462C
:104F2000069E21E0701CF8B12EB1FCF719FDA0EB34
:104F30000800B04218D92068006820F4D0702168B9
:104F400008602068806820F00100216888602020C7
:104F500084F8790084F87A0000BF002084F8780093
:104F600000BF0320BDE8F0812068C0692840A84246
:104F700001D1012000E00020B842D3D00020F1E7A9
:104F800000BFFEE70FB4054B10B503A9044A029811
:104F900000F034F810BC5DF814FB0000A1670008B5
:104FA000EC00002402480068C0F3022070470000B3
:104FB0000CED00E010B5002804DB0A07130E054ACB
:104FC000135406E00A07140E034A00F00F031B1FD8
:104FD000D45410BD00E400E018ED00E002E008C881
:104FE000121F08C1002AFAD170477047002001E063
:104FF00001C1121F002AFBD1704700002DE9FF4FAD
:105000008BB088460546002606E025280BD0DDE952
:105010000D1290476D1C761C28780028F5D10FB032
:105020003046BDE8F08F0024A146A2460122AE49D9
:1050300000E0044315F8013F203B02FA03F0084268
:10504000F7D128782A2810D06FF02F022878A0F105
:105050003001092915D809EB890102EB410144F01F
:10506000020400EB01096D1CF0E758F8041B5FEA2D
:10507000010903D544F40054C9F1000944F00204C5
:105080006D1C28782E2817D115F8010F44F0040460
:105090002A280ED06FF02F022878A0F130010929BC
:1050A0000AD80AEB8A0102EB410100EB010A6D1CF0
:1050B000F2E758F804AB6D1C28786C280FD006DC9A
:1050C0004C2817D068280DD06A2814D104E0742821
:1050D00010D07A280FD10DE044F400140AE044F413
:1050E000801401E044F440146978814202D104F54F
:1050F00080146D1C6D1C2878692865D006DC00289A
:105100008DD0632827D0642806D15DE06E2808D0B2
:1051100073282AD0752877D0DDE90D129047761CC8
:10512000E0E0C4F30250022809D003280DD0D8F8DB
:10513000001004280DD00E6008F10408D2E0D8F861
:105140000010F217C1E90062F6E7D8F800100E80EF
:10515000F2E70E70F0E718F8041B8DF8001000203D
:105160008DF80100EB46012003E058F804BB4FF036
:10517000FF3061074FF0000701D40AE07F1C57455C
:105180000DDA8742FADB1BF807100029F6D106E09A
:105190007F1C8742FCDB1BF807100029F8D1DDE9F2
:1051A0000D23A9EB07008146214600F0B1F83044F9
:1051B000C61904E0DDE90D121BF8010B90477F1EB4
:1051C000F8D22146484688E058F8040BC4F302514F
:1051D0004FF00A0B032900D100B2042900D140B2DC
:1051E000002802DA40422D2102E0210505D52B21BD
:1051F0008DF82410012104E006E0E10710D0202101
:10520000F6E708AF089113E058F8040BC4F3025115
:105210004FF00A0B032900D180B2042900D1C0B29B
:105220000021EEE75946FBF7B5F8303107F8011DCC
:105230000028F7D1ADEB070000F1200B600702D585
:1052400024F4803401E04FF0010ADA4502DDAAEBD4
:105250000B0000E00020824600EB0B01089801449F
:10526000A9EB01000A90E00306D4DDE90D232146F5
:105270000A9800F04DF806444FF0000908E009A92B
:1052800011F80900DDE90D12904709F10109761CBA
:1052900008998945F3DBE0030CD5DDE90D232146B0
:1052A0000A9800F035F8064404E0DDE90D123020DC
:1052B0009047761CBAF10001AAF1010AF5DC05E07D
:1052C000DDE90D1217F8010B9047761CBBF10001C8
:1052D000ABF1010BF4DC0A982146DDE90D2300F067
:1052E00005F806446D1C97E6092801002DE9F041F8
:1052F000044600251E461746880404D405E03946B6
:105300002020B0476D1C641EF9D52846BDE8F08109
:105310002DE9F041044600251E469046C80301D5FC
:10532000302700E02027880404D505E041463846B0
:10533000B0476D1C641EF9D52846BDE8F081000019
:1053400070B50446254668688047224602492868A9
:1053500004F0ACFE70BD00004153000870B5044677
:105360000D4600BF05F00300002808D000BF0AA3C7
:105370004FF4CE7214A11CA0FFF704FE00BF00BFC3
:105380002E4620688088401E21688880E06800687A
:105390003060E068066070BD2E2E2F4D6964646C2D
:1053A0006577617265732F54686972645F506172CA
:1053B00074792F4C7749502F7372632F636F726526
:1053C0002F6D656D702E63006D656D705F66726523
:1053D000653A206D656D2070726F7065726C792012
:1053E000616C69676E656400417373657274696F9F
:1053F0006E2022257322206661696C6564206174C9
:10540000206C696E6520256420696E2025730A0072
:1054100070B50446E0680568002D22D02868E16870
:10542000086000BF05F00300002808D000BF10A3EB
:105430004FF4A4721AA123A0FFF7A4FD00BF00BF80
:1054400020688088401C21688880206880882168C6
:10545000C988884203DD206880882168C880284682
:1054600070BD20680088401C216808800020F7E794
:105470002E2E2F4D6964646C6577617265732F54AD
:10548000686972645F50617274792F4C7749502F4C
:105490007372632F636F72652F6D656D702E63007D
:1054A0006D656D705F6D616C6C6F633A206D656DDD
:1054B000702070726F7065726C7920616C69676EB4
:1054C00065640000417373657274696F6E202225F4
:1054D0007322206661696C6564206174206C696E5A
:1054E0006520256420696E2025730A0070B5054685
:1054F000002412E004EB4400094901EBC000067DE2
:105500004EB104EB440001EBC0008068A84202D118
:10551000204600F077F9601CC4B20A2CEADB70BDAB
:10552000183900242DE9FE4F064688464FF00A0937
:10553000CA460A270024BB46002002900190009032
:1055400000BF6BE004EB44006F4901EBC000057D38
:105550000A2F02D10DB967B25EE0002D5CD000BF0A
:10556000012D0AD0022D08DA00BF68A340F22512EF
:1055700074A184A0FFF706FD00BF00BF5EB104EB7D
:105580004401614A02EBC10130684968884202D196
:1055900060B2BDE8FE8F012D2AD104EB44005A49C8
:1055A00051F8300088B104EB440001EBC000418A9F
:1055B0000298814230DB4FFA84FB04EB44005249ED
:1055C00001EBC000408A029026E004EB44004E4903
:1055D00001EBC000418A019881421DDB4FFA84F93A
:1055E00004EB4400484901EBC000408A019013E0FD
:1055F000022D11DB04EB4400434901EBC000418A5A
:105600000098814208DB4FFA84FA04EB44003E49DB
:1056100001EBC000408A0090601CC4B20A2C91DBF0
:1056200008F0020020B90A2F05D108F0010010B9D6
:105630004FF0FF30ADE70A2F01DAFCB234E0BAF1E7
:105640000A0F12DA0AF0FF0400BF04EB44002E49EF
:1056500051F8300040B100BF2CA340F26F1253A1AB
:1056600048A0FFF78FFC00BF0EE0B9F10A0F02DA85
:1056700009F0FF0408E0BBF10A0F02DA0BF0FF04A7
:1056800002E04FF0FF3084E700BF0A2C08DB00BFC8
:105690001EA340F281124BA13AA0FFF773FC00BF9A
:1056A00000BF204600F0AEF800BF0A2C08DB00BFA8
:1056B00016A340F2851243A132A0FFF763FC00BF9E
:1056C00000BF00BF04EB44000F4901EBC000007DA8
:1056D00040B100BF0DA34FF4C3723FA129A0FFF753
:1056E00051FC00BF00BF36B104EB4401064A02EB97
:1056F000C10130684860002004EB4401024A02EB1B
:10570000C101488260B244E7183900242E2E2F4D83
:105710006964646C6577617265732F54686972643B
:105720005F50617274792F4C7749502F7372632FD9
:10573000636F72652F697076342F6574686172705B
:105740002E6300007374617465203D3D204554480C
:105750004152505F53544154455F50454E44494E69
:1057600047207C7C207374617465203E3D20455445
:10577000484152505F53544154455F535441424C49
:1057800045000000417373657274696F6E202225B5
:105790007322206661696C6564206174206C696E97
:1057A0006520256420696E2025730A006172705F90
:1057B0007461626C655B695D2E71203D3D204E55C4
:1057C0004C4C000069203C204152505F5441424CF7
:1057D000455F53495A4500006172705F7461626CA5
:1057E000655B695D2E7374617465203D3D20455491
:1057F000484152505F53544154455F454D505459B0
:105800000000000010B5044604EB44000C4951F8B8
:10581000300060B104EB4401094A52F8310004F051
:1058200017F8002004EB4401054A42F8310000203B
:1058300004EB4401024A02EBC101087510BD0000EF
:1058400018390024F0B587B007460D4600BF002D7B
:105850000AD100BF39A34FF4227246A149A0FFF735
:1058600091FB00BF07B0F0BD00BF7C682088B0F599
:10587000807F08D12079062805D16079042802D1DB
:10588000608808280ED04948008D401C81B24748E6
:105890000185C08B401C81B24448C183384603F067
:1058A000D7FFDFE74148408B401C81B23F4841832E
:1058B000D4F80E000690A0690590686808B9002623
:1058C00007E005986968884201D1012000E00020C6
:1058D00006460EB1012000E00220034604F1080252
:1058E00006A9284600F0D6FCE088B0F5807F03D0FA
:1058F000B0F5007F15D113E086B1022206AB04F1AA
:105900000800291DCDE90232CDE9001005F12D0373
:1059100002462931284600F05BFB00E000BF07E0AB
:1059200006E02248808D401C81B22048818500BF5E
:1059300000BF384603F08CFF00BF93E72E2E2F4D9B
:105940006964646C6577617265732F546869726409
:105950005F50617274792F4C7749502F7372632FA7
:10596000636F72652F697076342F65746861727029
:105970002E6300006E6574696620213D204E554CF3
:105980004C000000417373657274696F6E202225AC
:105990007322206661696C6564206174206C696E95
:1059A0006520256420696E2025730A0030380024A4
:1059B0002DE9FE4305460F461446A14600BF002DC3
:1059C00008D100BF58A340F21B3265A168A0FFF7C1
:1059D000D9FA00BF00BF00BF47B900BF52A34FF4C0
:1059E00047726DA162A0FFF7CDFA00BF00BF00BFF4
:1059F000002C08D100BF4CA340F21D3269A15CA06D
:105A0000FFF7C0FA00BF00BF2946206801F04AF93D
:105A100010B1DFF8A0817CE0207800F0F000E028F1
:105A200016D101208DF8040000208DF805005E20BD
:105A30008DF80600607800F07F008DF80700A078F0
:105A40008DF80800E0788DF809000DF104085FE09A
:105A50002068A9680840D5E90112114088420ED09B
:105A6000208880B24FF6A961884208D0E86810B15A
:105A700005F10C0903E06FF00300BDE8FE834E481A
:105A8000007800EB40004D4901EBC000007D02288A
:105A900018DB4949097801EB4101484A02EBC10191
:105AA000D9F80000496888420CD14548C08D401C97
:105AB00081B24348C185404802783946284600F003
:105AC00081F8DAE700261BE006EB46003B4901EBD4
:105AD000C000007D022811DB06EB4601374A02EBCD
